10:24:54.959462 ens18 Out ARP, Reply p0f-debian is-at bc:24:11:58:31:ca (oui Unknown), length 28
	0x0000:  0001 0800 0604 0002 bc24 1158 31ca 82d0
	0x0010:  f6a8 d401 c34c 17fc 82d0 f6a1
10:24:59.969048 ens18 Out IP p0f-debian.9383 > 207.90.244.11.26200: Flags [R.], seq 0, ack 450503422, win 0, length 0
	0x0000:  4500 0028 0000 4000 4006 fdf0 82d0 f6a8
	0x0010:  cf5a f40b 24a7 6658 0000 0000 1ada 22fe
	0x0020:  5014 0000 aa19 0000

10:25:14.737620 ens18 Out IP p0f-debian.1739 > n34.scanner.modat.io.56031: Flags [R.], seq 0, ack 2437732914, win 0, length 0
	0x0000:  4500 0028 0000 4000 4006 8241 82d0 f6a8
	0x0010:  1f0e 2008 06cb dadf 0000 0000 914c da32
	0x0020:  5014 0000 aa17 0000
10:25:15.519736 ens18 Out IP p0f-debian.51612 > dns.google.domain: 8365+ PTR? 8.32.14.31.in-addr.arpa. (41)
	0x0000:  4500 0045 e891 4000 4011 c88d 82d0 f6a8
	0x0010:  0808 0808 c99c 0035 0031 89cb 20ad 0100
	0x0020:  0001 0000 0000 0000 0138 0233 3202 3134
	0x0030:  0233 3107 696e 2d61 6464 7204 6172 7061
	0x0040:  0000 0c00 01
10:25:16.543280 ens18 Out IP p0f-debian.56136 > dns.google.domain: 60802+ PTR? 8.8.8.8.in-addr.arpa. (38)
	0x0000:  4500 0042 b821 4000 4011 f900 82d0 f6a8
	0x0010:  0808 0808 db48 0035 002e 89c8 ed82 0100
	0x0020:  0001 0000 0000 0000 0138 0138 0138 0138
	0x0030:  0769 6e2d 6164 6472 0461 7270 6100 000c
	0x0040:  0001
10:25:23.320351 ens18 Out IP p0f-debian.8178 > adeptus.census.shodan.io.26200: Flags [R.], seq 0, ack 611262197, win 0, length 0
	0x0000:  4500 0028 0000 4000 4006 957a 82d0 f6a8
	0x0010:  92be 991e 1ff2 6658 0000 0000 246f 1ef5
	0x0020:  5014 0000 40cc 0000
10:25:23.711296 ens18 Out IP p0f-debian.38917 > dns.google.domain: 11977+ PTR? 30.153.190.146.in-addr.arpa. (45)
	0x0000:  4500 0049 6c6c 4000 4011 44af 82d0 f6a8
	0x0010:  0808 0808 9805 0035 0035 89cf 2ec9 0100
	0x0020:  0001 0000 0000 0000 0233 3003 3135 3303
	0x0030:  3139 3003 3134 3607 696e 2d61 6464 7204
	0x0040:  6172 7061 0000 0c00 01
10:25:30.698188 ens18 Out IP p0f-debian.8859 > recyber.net.42054: Flags [R.], seq 0, ack 2810355361, win 0, length 0
	0x0000:  4500 0028 0000 4000 4006 c20b 82d0 f6a8
	0x0010:  59f8 a553 229b a446 0000 0000 a782 9ea1
	0x0020:  5014 0000 2a06 0000
10:25:30.879324 ens18 Out IP p0f-debian.53052 > dns.google.domain: 43098+ PTR? 83.165.248.89.in-addr.arpa. (44)
	0x0000:  4500 0048 5952 4000 4011 57ca 82d0 f6a8
	0x0010:  0808 0808 cf3c 0035 0034 89ce a85a 0100
	0x0020:  0001 0000 0000 0000 0238 3303 3136 3503
	0x0030:  3234 3802 3839 0769 6e2d 6164 6472 0461
	0x0040:  7270 6100 000c 0001
10:25:46.607093 ens18 Out IP p0f-debian.8158 > sand.census.shodan.io.26200: Flags [R.], seq 0, ack 153407343, win 0, length 0
	0x0000:  4500 0028 0000 4000 4006 6cad 82d0 f6a8
	0x0010:  d126 8383 1fde 6658 0000 0000 0924 cf6f
	0x0020:  5014 0000 82e3 0000
10:25:47.263362 ens18 Out IP p0f-debian.49348 > dns.google.domain: 7181+ PTR? 131.131.38.209.in-addr.arpa. (45)
	0x0000:  4500 0049 2b89 4000 4011 8592 82d0 f6a8
	0x0010:  0808 0808 c0c4 0035 0035 89cf 1c0d 0100
	0x0020:  0001 0000 0000 0000 0331 3331 0331 3331
	0x0030:  0233 3803 3230 3907 696e 2d61 6464 7204
	0x0040:  6172 7061 0000 0c00 01
10:25:51.646986 ens18 Out ARP, Request who-has _gateway tell p0f-debian, length 28
	0x0000:  0001 0800 0604 0001 bc24 1158 31ca 82d0
	0x0010:  f6a8 0000 0000 0000 82d0 f6a1
10:25:51.679411 ens18 Out ARP, Reply p0f-debian is-at bc:24:11:58:31:ca (oui Unknown), length 28
	0x0000:  0001 0800 0604 0002 bc24 1158 31ca 82d0
	0x0010:  f6a8 d401 c34c 17fc 82d0 f6a1
10:26:07.979588 ens18 Out IP p0f-debian.3746 > o47.scanner.modat.io.48558: Flags [R.], seq 0, ack 2913996640, win 0, length 0
	0x0000:  4500 0028 0000 4000 4006 57dc 82d0 f6a8
	0x0010:  3344 3637 0ea2 bdae 0000 0000 adb0 0f60
	0x0020:  5014 0000 437b 0000
10:26:08.767276 ens18 Out IP p0f-debian.35816 > dns.google.domain: 54090+ PTR? 55.54.68.51.in-addr.arpa. (42)
	0x0000:  4500 0046 758f 4000 4011 3b8f 82d0 f6a8
	0x0010:  0808 0808 8be8 0035 0032 89cc d34a 0100
	0x0020:  0001 0000 0000 0000 0235 3502 3534 0236
	0x0030:  3802 3531 0769 6e2d 6164 6472 0461 7270
	0x0040:  6100 000c 0001
10:26:11.265544 ens18 Out IP p0f-debian.8038 > adeptus.census.shodan.io.26200: Flags [R.], seq 0, ack 611262049, win 0, length 0
	0x0000:  4500 0028 0000 4000 4006 957a 82d0 f6a8
	0x0010:  92be 991e 1f66 6658 0000 0000 246f 1e61
	0x0020:  5014 0000 41ec 0000
10:26:47.566648 ens18 Out IP p0f-debian.mdns > mdns.mcast.net.mdns: 0 PTR (QM)? _nmea-0183._tcp.local. (39)
	0x0000:  4500 0043 ff56 4000 ff11 21de 82d0 f6a8
	0x0010:  e000 00fb 14e9 14e9 002f 5ab5 0000 0000
	0x0020:  0001 0000 0000 0000 0a5f 6e6d 6561 2d30
	0x0030:  3138 3304 5f74 6370 056c 6f63 616c 0000
	0x0040:  0c00 01
10:26:47.679233 ens18 Out IP p0f-debian.55986 > dns.google.domain: 25069+ PTR? 251.0.0.224.in-addr.arpa. (42)
	0x0000:  4500 0046 5a8e 4000 4011 5690 82d0 f6a8
	0x0010:  0808 0808 dab2 0035 0032 89cc 61ed 0100
	0x0020:  0001 0000 0000 0000 0332 3531 0130 0130
	0x0030:  0332 3234 0769 6e2d 6164 6472 0461 7270
	0x0040:  6100 000c 0001
10:26:52.799377 ens18 Out ARP, Reply p0f-debian is-at bc:24:11:58:31:ca (oui Unknown), length 28
	0x0000:  0001 0800 0604 0002 bc24 1158 31ca 82d0
	0x0010:  f6a8 d401 c34c 17fc 82d0 f6a1
10:26:52.830993 ens18 Out ARP, Request who-has _gateway tell p0f-debian, length 28
	0x0000:  0001 0800 0604 0001 bc24 1158 31ca 82d0
	0x0010:  f6a8 0000 0000 0000 82d0 f6a1
10:26:58.208111 ens18 Out IP p0f-debian.printer > azpdcgsp1rt5.stretchoid.com.32771: Flags [R.], seq 0, ack 2024364453, win 0, length 0
	0x0000:  4500 0028 0000 4000 4006 a4a7 82d0 f6a8
	0x0010:  141d 0893 0203 8003 0000 0000 78a9 59a5
	0x0020:  5014 0000 c552 0000
10:26:58.943321 ens18 Out IP p0f-debian.51990 > dns.google.domain: 60072+ PTR? 147.8.29.20.in-addr.arpa. (42)
	0x0000:  4500 0046 580e 4000 4011 5910 82d0 f6a8
	0x0010:  0808 0808 cb16 0035 0032 89cc eaa8 0100
	0x0020:  0001 0000 0000 0000 0331 3437 0138 0232
	0x0030:  3902 3230 0769 6e2d 6164 6472 0461 7270
	0x0040:  6100 000c 0001
10:27:21.937816 ens18 Out IP p0f-debian.9192 > 198.235.24.58.53507: Flags [R.], seq 0, ack 863833820, win 0, length 0
	0x0000:  4560 0028 0000 4000 4006 e1d1 82d0 f6a8
	0x0010:  c6eb 183a 23e8 d103 0000 0000 337d 0edc
	0x0020:  5014 0000 1fed 0000
10:27:22.495313 ens18 Out IP p0f-debian.38535 > dns.google.domain: 4469+ PTR? 58.24.235.198.in-addr.arpa. (44)
	0x0000:  4500 0048 2c8e 4000 4011 848e 82d0 f6a8
	0x0010:  0808 0808 9687 0035 0034 89ce 1175 0100
	0x0020:  0001 0000 0000 0000 0235 3802 3234 0332
	0x0030:  3335 0331 3938 0769 6e2d 6164 6472 0461
	0x0040:  7270 6100 000c 0001
10:27:23.359019 ens18 Out IP p0f-debian.ftp > 62.151.118.34.bc.googleusercontent.com.45432: Flags [R.], seq 0, ack 947339391, win 0, length 0
	0x0000:  4560 0028 0000 4000 4006 0743 82d0 f6a8
	0x0010:  2276 973e 0015 b178 0000 0000 3877 407f
	0x0020:  5014 0000 521f 0000
10:27:23.519322 ens18 Out IP p0f-debian.49514 > dns.google.domain: 56973+ PTR? 62.151.118.34.in-addr.arpa. (44)
	0x0000:  4500 0048 91d3 4000 4011 1f49 82d0 f6a8
	0x0010:  0808 0808 c16a 0035 0034 89ce de8d 0100
	0x0020:  0001 0000 0000 0000 0236 3203 3135 3103
	0x0030:  3131 3802 3334 0769 6e2d 6164 6472 0461
	0x0040:  7270 6100 000c 0001
10:27:27.134994 ens18 Out ARP, Request who-has _gateway tell p0f-debian, length 28
	0x0000:  0001 0800 0604 0001 bc24 1158 31ca 82d0
	0x0010:  f6a8 0000 0000 0000 82d0 f6a1
10:27:32.052069 ens18 Out IP p0f-debian.8265 > hosted-by.pfcloud.io.51083: Flags [R.], seq 0, ack 629578945, win 0, length 0
	0x0000:  4500 0028 0000 4000 4006 7b61 82d0 f6a8
	0x0010:  b041 95b4 2049 c78b 0000 0000 2586 9cc1
	0x0020:  5014 0000 4645 0000
10:27:32.735268 ens18 Out IP p0f-debian.56297 > dns.google.domain: 3470+ PTR? 180.149.65.176.in-addr.arpa. (45)
	0x0000:  4500 0049 6c41 4000 4011 44da 82d0 f6a8
	0x0010:  0808 0808 dbe9 0035 0035 89cf 0d8e 0100
	0x0020:  0001 0000 0000 0000 0331 3830 0331 3439
	0x0030:  0236 3503 3137 3607 696e 2d61 6464 7204
	0x0040:  6172 7061 0000 0c00 01
10:27:41.402666 ens18 Out IP p0f-debian.3978 > o40.scanner.modat.io.52608: Flags [R.], seq 0, ack 1058527342, win 0, length 0
	0x0000:  4500 0028 0000 4000 4006 111f 82d0 f6a8
	0x0010:  5b86 54b2 0f8a cd80 0000 0000 3f17 d86e
	0x0020:  5014 0000 918e 0000
10:27:41.951286 ens18 Out IP p0f-debian.52129 > dns.google.domain: 32659+ PTR? 178.84.134.91.in-addr.arpa. (44)
	0x0000:  4500 0048 f850 4000 4011 b8cb 82d0 f6a8
	0x0010:  0808 0808 cba1 0035 0034 89ce 7f93 0100
	0x0020:  0001 0000 0000 0000 0331 3738 0238 3403
	0x0030:  3133 3402 3931 0769 6e2d 6164 6472 0461
	0x0040:  7270 6100 000c 0001
10:27:46.479405 ens18 Out ARP, Reply p0f-debian is-at bc:24:11:58:31:ca (oui Unknown), length 28
	0x0000:  0001 0800 0604 0002 bc24 1158 31ca 82d0
	0x0010:  f6a8 d401 c34c 17fc 82d0 f6a1
10:27:54.634236 ens18 Out IP p0f-debian.1443 > 207.90.244.25.29011: Flags [R.], seq 0, ack 3366556691, win 0, length 0
	0x0000:  4500 0028 0000 4000 4006 fde2 82d0 f6a8
	0x0010:  cf5a f419 05a3 7153 0000 0000 c8a9 9413
	0x0020:  5014 0000 9f2f 0000
10:27:54.825863 ens18 Out IP p0f-debian.2078 > scan.cypex.ai.51202: Flags [R.], seq 0, ack 2536687648, win 0, length 0
	0x0000:  4500 0028 0000 4000 4006 0b05 82d0 f6a8
	0x0010:  12be a394 081e c802 0000 0000 9732 c820
	0x0020:  5014 0000 5091 0000
10:27:55.263286 ens18 Out IP p0f-debian.51303 > dns.google.domain: 22006+ PTR? 25.244.90.207.in-addr.arpa. (44)
	0x0000:  4500 0048 0aa0 4000 4011 a67c 82d0 f6a8
	0x0010:  0808 0808 c867 0035 0034 89ce 55f6 0100
	0x0020:  0001 0000 0000 0000 0232 3503 3234 3402
	0x0030:  3930 0332 3037 0769 6e2d 6164 6472 0461
	0x0040:  7270 6100 000c 0001
10:27:55.305312 ens18 Out IP p0f-debian.57895 > dns.google.domain: 60643+ PTR? 148.163.190.18.in-addr.arpa. (45)
	0x0000:  4500 0049 1ea3 4000 4011 9278 82d0 f6a8
	0x0010:  0808 0808 e227 0035 0035 89cf ece3 0100
	0x0020:  0001 0000 0000 0000 0331 3438 0331 3633
	0x0030:  0331 3930 0231 3807 696e 2d61 6464 7204
	0x0040:  6172 7061 0000 0c00 01
10:27:59.647023 ens18 Out ARP, Request who-has _gateway tell p0f-debian, length 28
	0x0000:  0001 0800 0604 0001 bc24 1158 31ca 82d0
	0x0010:  f6a8 0000 0000 0000 82d0 f6a1
10:28:08.092436 ens18 Out IP p0f-debian.6969 > 45.82.76.128.51334: Flags [R.], seq 0, ack 4181834130, win 0, length 0
	0x0000:  4500 0028 0000 4000 4006 4785 82d0 f6a8
	0x0010:  2d52 4c80 1b39 c886 0000 0000 f941 b992
	0x0020:  5014 0000 25f1 0000
10:28:08.575280 ens18 Out IP p0f-debian.50023 > dns.google.domain: 64578+ PTR? 128.76.82.45.in-addr.arpa. (43)
	0x0000:  4500 0047 54a2 4000 4011 5c7b 82d0 f6a8
	0x0010:  0808 0808 c367 0035 0033 89cd fc42 0100
	0x0020:  0001 0000 0000 0000 0331 3238 0237 3602
	0x0030:  3832 0234 3507 696e 2d61 6464 7204 6172
	0x0040:  7061 0000 0c00 01
10:28:20.882858 ens18 Out IP p0f-debian.9176 > lava.census.shodan.io.26200: Flags [R.], seq 0, ack 1435231417, win 0, length 0
	0x0000:  4500 0028 0000 4000 4006 1767 82d0 f6a8
	0x0010:  89b8 2038 23d8 6658 0000 0000 558b e4b9
	0x0020:  5014 0000 c7f1 0000
10:28:21.887293 ens18 Out IP p0f-debian.58056 > dns.google.domain: 57393+ PTR? 56.32.184.137.in-addr.arpa. (44)
	0x0000:  4500 0048 9cc5 4000 4011 1457 82d0 f6a8
	0x0010:  0808 0808 e2c8 0035 0034 89ce e031 0100
	0x0020:  0001 0000 0000 0000 0235 3602 3332 0331
	0x0030:  3834 0331 3337 0769 6e2d 6164 6472 0461
	0x0040:  7270 6100 000c 0001
10:28:43.414131 ens18 Out IP p0f-debian.8022 > 196.251.80.161.39640: Flags [R.], seq 0, ack 3970641965, win 0, length 0
	0x0000:  4500 0028 0000 4000 4006 abba 82d0 f6a8
	0x0010:  c4fb 50a1 1f56 9ad8 0000 0000 ecab 302d
	0x0020:  5014 0000 49b3 0000
10:28:44.415321 ens18 Out IP p0f-debian.58243 > dns.google.domain: 16813+ PTR? 161.80.251.196.in-addr.arpa. (45)
	0x0000:  4500 0049 175e 4000 4011 99bd 82d0 f6a8
	0x0010:  0808 0808 e383 0035 0035 89cf 41ad 0100
	0x0020:  0001 0000 0000 0000 0331 3631 0238 3003
	0x0030:  3235 3103 3139 3607 696e 2d61 6464 7204
	0x0040:  6172 7061 0000 0c00 01
10:28:46.128657 ens18 Out IP p0f-debian.kerberos > 207.90.244.27.29011: Flags [R.], seq 0, ack 121869653, win 0, length 0
	0x0000:  4500 0028 0000 4000 4006 fde0 82d0 f6a8
	0x0010:  cf5a f41b 0058 7153 0000 0000 0743 9555
	0x0020:  5014 0000 649d 0000
10:28:46.463280 ens18 Out IP p0f-debian.48764 > dns.google.domain: 64393+ PTR? 27.244.90.207.in-addr.arpa. (44)
	0x0000:  4500 0048 5f12 4000 4011 520a 82d0 f6a8
	0x0010:  0808 0808 be7c 0035 0034 89ce fb89 0100
	0x0020:  0001 0000 0000 0000 0232 3703 3234 3402
	0x0030:  3930 0332 3037 0769 6e2d 6164 6472 0461
	0x0040:  7270 6100 000c 0001
10:28:47.109513 ens18 Out IP p0f-debian.3333 > scan-44j.shadowserver.org.40465: Flags [R.], seq 0, ack 2494898897, win 0, length 0
	0x0000:  4500 0028 0000 4000 4006 bbfe 82d0 f6a8
	0x0010:  403e c51a 0d05 9e11 0000 0000 94b5 22d1
	0x0020:  5014 0000 ce61 0000
10:28:47.487335 ens18 Out IP p0f-debian.39852 > dns.google.domain: 65300+ PTR? 26.197.62.64.in-addr.arpa. (43)
	0x0000:  4500 0047 6074 4000 4011 50a9 82d0 f6a8
	0x0010:  0808 0808 9bac 0035 0033 89cd ff14 0100
	0x0020:  0001 0000 0000 0000 0232 3603 3139 3702
	0x0030:  3632 0236 3407 696e 2d61 6464 7204 6172
	0x0040:  7061 0000 0c00 01
10:28:48.479545 ens18 Out ARP, Reply p0f-debian is-at bc:24:11:58:31:ca (oui Unknown), length 28
	0x0000:  0001 0800 0604 0002 bc24 1158 31ca 82d0
	0x0010:  f6a8 d401 c34c 17fc 82d0 f6a1
10:28:48.542984 ens18 Out ARP, Request who-has _gateway tell p0f-debian, length 28
	0x0000:  0001 0800 0604 0001 bc24 1158 31ca 82d0
	0x0010:  f6a8 0000 0000 0000 82d0 f6a1
10:29:08.368351 ens18 Out IP p0f-debian.9001 > 80.82.77.144.49071: Flags [R.], seq 0, ack 3522103898, win 0, length 0
	0x0000:  4500 0028 0000 4000 4006 2375 82d0 f6a8
	0x0010:  5052 4d90 2329 bfaf 0000 0000 d1ef 0a5a
	0x0020:  5014 0000 d952 0000
10:29:08.991347 ens18 Out IP p0f-debian.42233 > dns.google.domain: 28753+ PTR? 144.77.82.80.in-addr.arpa. (43)
	0x0000:  4500 0047 09d8 4000 4011 a745 82d0 f6a8
	0x0010:  0808 0808 a4f9 0035 0033 89cd 7051 0100
	0x0020:  0001 0000 0000 0000 0331 3434 0237 3702
	0x0030:  3832 0238 3007 696e 2d61 6464 7204 6172
	0x0040:  7061 0000 0c00 01
10:29:24.289218 ens18 Out IP p0f-debian.ssh > 196.251.87.175.49774: Flags [R.], seq 0, ack 3604990589, win 0, length 0
	0x0000:  4500 0028 0000 4000 4006 a4ac 82d0 f6a8
	0x0010:  c4fb 57af 0016 c26e 0000 0000 d6df ca7d
	0x0020:  5014 0000 b5ca 0000
10:29:24.351266 ens18 Out IP p0f-debian.33937 > dns.google.domain: 8507+ PTR? 175.87.251.196.in-addr.arpa. (45)
	0x0000:  4500 0049 e6d4 4000 4011 ca46 82d0 f6a8
	0x0010:  0808 0808 8491 0035 0035 89cf 213b 0100
	0x0020:  0001 0000 0000 0000 0331 3735 0238 3703
	0x0030:  3235 3103 3139 3607 696e 2d61 6464 7204
	0x0040:  6172 7061 0000 0c00 01
10:29:29.359477 ens18 Out ARP, Reply p0f-debian is-at bc:24:11:58:31:ca (oui Unknown), length 28
	0x0000:  0001 0800 0604 0002 bc24 1158 31ca 82d0
	0x0010:  f6a8 d401 c34c 17fc 82d0 f6a1
10:29:29.502984 ens18 Out ARP, Request who-has _gateway tell p0f-debian, length 28
	0x0000:  0001 0800 0604 0001 bc24 1158 31ca 82d0
	0x0010:  f6a8 0000 0000 0000 82d0 f6a1
10:29:29.896506 ens18 Out IP p0f-debian.telnet > 87.103.203.188.60887: Flags [R.], seq 0, ack 3877568704, win 0, length 0
	0x0000:  4500 0028 0000 4000 4006 9e33 82d0 f6a8
	0x0010:  5767 cbbc 0017 edd7 0000 0000 e71f 00c0
	0x0020:  5014 0000 3d65 0000
10:29:30.495280 ens18 Out IP p0f-debian.50418 > dns.google.domain: 29646+ PTR? 188.203.103.87.in-addr.arpa. (45)
	0x0000:  4500 0049 bd17 4000 4011 f403 82d0 f6a8
	0x0010:  0808 0808 c4f2 0035 0035 89cf 73ce 0100
	0x0020:  0001 0000 0000 0000 0331 3838 0332 3033
	0x0030:  0331 3033 0238 3707 696e 2d61 6464 7204
	0x0040:  6172 7061 0000 0c00 01
10:29:35.700231 ens18 Out IP p0f-debian.3510 > sand.census.shodan.io.26200: Flags [R.], seq 0, ack 4213487889, win 0, length 0
	0x0000:  4500 0028 0000 4000 4006 6cad 82d0 f6a8
	0x0010:  d126 8383 0db6 6658 0000 0000 fb24 b911
	0x0020:  5014 0000 b968 0000
10:29:41.636518 ens18 Out IP p0f-debian.3806 > o33.scanner.modat.io.50114: Flags [R.], seq 0, ack 3335198338, win 0, length 0
	0x0000:  4500 0028 0000 4000 4006 47cc 82d0 f6a8
	0x0010:  3981 400a 0ede c3c2 0000 0000 c6cb 1682
	0x0020:  5014 0000 0cde 0000
10:29:41.759325 ens18 Out IP p0f-debian.38424 > dns.google.domain: 52495+ PTR? 10.64.129.57.in-addr.arpa. (43)
	0x0000:  4500 0047 6529 4000 4011 4bf4 82d0 f6a8
	0x0010:  0808 0808 9618 0035 0033 89cd cd0f 0100
	0x0020:  0001 0000 0000 0000 0231 3002 3634 0331
	0x0030:  3239 0235 3707 696e 2d61 6464 7204 6172
	0x0040:  7061 0000 0c00 01
10:29:59.817302 ens18 Out IP p0f-debian.munin > pretzel.scanf.shodan.io.3009: Flags [R.], seq 0, ack 1048630354, win 0, length 0
	0x0000:  4500 0028 0000 4000 4006 8bc6 82d0 f6a8
	0x0010:  8b3b aa55 1355 0bc1 0000 0000 3e80 d452
	0x0020:  5014 0000 cedd 0000
10:30:00.191568 ens18 Out IP p0f-debian.35888 > dns.google.domain: 41033+ PTR? 85.170.59.139.in-addr.arpa. (44)
	0x0000:  4500 0048 7bbc 4000 4011 3560 82d0 f6a8
	0x0010:  0808 0808 8c30 0035 0034 89ce a049 0100
	0x0020:  0001 0000 0000 0000 0238 3503 3137 3002
	0x0030:  3539 0331 3339 0769 6e2d 6164 6472 0461
	0x0040:  7270 6100 000c 0001
10:30:01.418520 ens18 Out IP p0f-debian.https > azpdwswntiwo.stretchoid.com.40079: Flags [R.], seq 0, ack 622623571, win 0, length 0
	0x0000:  4500 0028 0000 4000 4006 9e32 82d0 f6a8
	0x0010:  14a3 0e82 01bb 9c8f 0000 0000 251c 7b53
	0x0020:  5014 0000 d478 0000
10:30:02.239299 ens18 Out IP p0f-debian.37843 > dns.google.domain: 22029+ PTR? 130.14.163.20.in-addr.arpa. (44)
	0x0000:  4500 0048 e47f 4000 4011 cc9c 82d0 f6a8
	0x0010:  0808 0808 93d3 0035 0034 89ce 560d 0100
	0x0020:  0001 0000 0000 0000 0331 3330 0231 3403
	0x0030:  3136 3302 3230 0769 6e2d 6164 6472 0461
	0x0040:  7270 6100 000c 0001
10:30:04.830993 ens18 Out ARP, Request who-has _gateway tell p0f-debian, length 28
	0x0000:  0001 0800 0604 0001 bc24 1158 31ca 82d0
	0x0010:  f6a8 0000 0000 0000 82d0 f6a1
10:30:04.880684 ens18 Out ARP, Reply p0f-debian is-at bc:24:11:58:31:ca (oui Unknown), length 28
	0x0000:  0001 0800 0604 0002 bc24 1158 31ca 82d0
	0x0010:  f6a8 d401 c34c 17fc 82d0 f6a1
10:30:22.856650 ens18 Out IP p0f-debian.9015 > io.census.shodan.io.26200: Flags [R.], seq 0, ack 1658979422, win 0, length 0
	0x0000:  4500 0028 0000 4000 4006 ca9f 82d0 f6a8
	0x0010:  a45c 525b 2337 6658 0000 0000 62e2 045e
	0x0020:  5014 0000 4ed0 0000
10:30:23.743293 ens18 Out IP p0f-debian.48632 > dns.google.domain: 32177+ PTR? 91.82.92.164.in-addr.arpa. (43)
	0x0000:  4500 0047 d255 4000 4011 dec7 82d0 f6a8
	0x0010:  0808 0808 bdf8 0035 0033 89cd 7db1 0100
	0x0020:  0001 0000 0000 0000 0239 3102 3832 0239
	0x0030:  3203 3136 3407 696e 2d61 6464 7204 6172
	0x0040:  7061 0000 0c00 01
10:30:44.603780 ens18 Out IP p0f-debian.3131 > mechanicus.census.shodan.io.26200: Flags [R.], seq 0, ack 938449826, win 0, length 0
	0x0000:  4500 0028 0000 4000 4006 aaf6 82d0 f6a8
	0x0010:  4017 d649 0c3b 6658 0000 0000 37ef 9ba2
	0x0020:  5014 0000 d9d1 0000
10:30:45.247308 ens18 Out IP p0f-debian.41442 > dns.google.domain: 32606+ PTR? 73.214.23.64.in-addr.arpa. (43)
	0x0000:  4500 0047 755e 4000 4011 3bbf 82d0 f6a8
	0x0010:  0808 0808 a1e2 0035 0033 89cd 7f5e 0100
	0x0020:  0001 0000 0000 0000 0237 3303 3231 3402
	0x0030:  3233 0236 3407 696e 2d61 6464 7204 6172
	0x0040:  7061 0000 0c00 01
10:30:49.631017 ens18 Out ARP, Request who-has _gateway tell p0f-debian, length 28
	0x0000:  0001 0800 0604 0001 bc24 1158 31ca 82d0
	0x0010:  f6a8 0000 0000 0000 82d0 f6a1
10:30:49.679639 ens18 Out ARP, Reply p0f-debian is-at bc:24:11:58:31:ca (oui Unknown), length 28
	0x0000:  0001 0800 0604 0002 bc24 1158 31ca 82d0
	0x0010:  f6a8 d401 c34c 17fc 82d0 f6a1
10:31:03.657591 ens18 Out IP p0f-debian.mdns > mdns.mcast.net.mdns: 0 PTR (QM)? _nmea-0183._tcp.local. (39)
	0x0000:  4500 0043 5e24 4000 ff11 c310 82d0 f6a8
	0x0010:  e000 00fb 14e9 14e9 002f 5ab5 0000 0000
	0x0020:  0001 0000 0000 0000 0a5f 6e6d 6561 2d30
	0x0030:  3138 3304 5f74 6370 056c 6f63 616c 0000
	0x0040:  0c00 01
10:31:11.417934 ens18 Out IP p0f-debian.ssh > 198.235.24.227.50824: Flags [R.], seq 0, ack 477103618, win 0, length 0
	0x0000:  4500 0028 0000 4000 4006 e188 82d0 f6a8
	0x0010:  c6eb 18e3 0016 c688 0000 0000 1c70 0602
	0x0020:  5014 0000 6d78 0000
10:31:11.871320 ens18 Out IP p0f-debian.47244 > dns.google.domain: 63968+ PTR? 227.24.235.198.in-addr.arpa. (45)
	0x0000:  4500 0049 8be6 4000 4011 2535 82d0 f6a8
	0x0010:  0808 0808 b88c 0035 0035 89cf f9e0 0100
	0x0020:  0001 0000 0000 0000 0332 3237 0232 3403
	0x0030:  3233 3503 3139 3807 696e 2d61 6464 7204
	0x0040:  6172 7061 0000 0c00 01
10:31:12.564959 ens18 Out IP p0f-debian.9092 > 147.185.132.106.51862: Flags [R.], seq 0, ack 2222378766, win 0, length 0
	0x0000:  4560 0028 0000 4000 4006 a8d3 82d0 f6a8
	0x0010:  93b9 846a 2384 ca96 0000 0000 8476 cf0e
	0x0020:  5014 0000 dc93 0000
10:31:12.895359 ens18 Out IP p0f-debian.56392 > dns.google.domain: 44449+ PTR? 106.132.185.147.in-addr.arpa. (46)
	0x0000:  4500 004a b89b 4000 4011 f87e 82d0 f6a8
	0x0010:  0808 0808 dc48 0035 0036 89d0 ada1 0100
	0x0020:  0001 0000 0000 0000 0331 3036 0331 3332
	0x0030:  0331 3835 0331 3437 0769 6e2d 6164 6472
	0x0040:  0461 7270 6100 000c 0001
10:31:26.263994 ens18 Out IP p0f-debian.socks > 196.251.81.30.57900: Flags [R.], seq 0, ack 2456111489, win 0, length 0
	0x0000:  4500 0028 0000 4000 4006 ab3d 82d0 f6a8
	0x0010:  c4fb 511e 0438 e22c 0000 0000 9265 4981
	0x0020:  5014 0000 5df2 0000
10:31:27.231324 ens18 Out IP p0f-debian.58574 > dns.google.domain: 54650+ PTR? 30.81.251.196.in-addr.arpa. (44)
	0x0000:  4500 0048 d438 4000 4011 dce3 82d0 f6a8
	0x0010:  0808 0808 e4ce 0035 0034 89ce d57a 0100
	0x0020:  0001 0000 0000 0000 0233 3002 3831 0332
	0x0030:  3531 0331 3936 0769 6e2d 6164 6472 0461
	0x0040:  7270 6100 000c 0001
10:31:30.578473 ens18 Out IP p0f-debian.1605 > 194.180.49.216.56806: Flags [R.], seq 0, ack 490294328, win 0, length 0
	0x0000:  4540 0028 0000 4000 4006 cc8a 82d0 f6a8
	0x0010:  c2b4 31d8 0645 dde6 0000 0000 1d39 4c38
	0x0020:  5014 0000 f42d 0000
10:31:31.093032 ens18 Out IP p0f-debian.bootpc > _gateway.bootps: BOOTP/DHCP, Request from bc:24:11:58:31:ca (oui Unknown), length 288
	0x0000:  45c0 013c 5e43 4000 4011 e7c2 82d0 f6a8
	0x0010:  82d0 f6a1 0044 0043 0128 f424 0101 0600
	0x0020:  0b92 f2fa 0001 0000 82d0 f6a8 0000 0000
	0x0030:  0000 0000 0000 0000 bc24 1158 31ca 0000
	0x0040:  0000 0000 0000 0000 0000 0000 0000 0000
	0x0050:  0000 0000 0000 0000 0000 0000 0000 0000
	0x0060:  0000 0000 0000 0000 0000 0000 0000 0000
	0x0070:  0000 0000 0000 0000 0000 0000 0000 0000
	0x0080:  0000 0000 0000 0000 0000 0000 0000 0000
	0x0090:  0000 0000 0000 0000 0000 0000 0000 0000
	0x00a0:  0000 0000 0000 0000 0000 0000 0000 0000
	0x00b0:  0000 0000 0000 0000 0000 0000 0000 0000
	0x00c0:  0000 0000 0000 0000 0000 0000 0000 0000
	0x00d0:  0000 0000 0000 0000 0000 0000 0000 0000
	0x00e0:  0000 0000 0000 0000 0000 0000 0000 0000
	0x00f0:  0000 0000 0000 0000 0000 0000 0000 0000
	0x0100:  0000 0000 0000 0000 6382 5363 3501 033d
	0x0110:  0701 bc24 1158 31ca 3711 0102 060c 0f1a
	0x0120:  1c79 0321 2829 2a77 f9fc 1139 02ff ff0c
	0x0130:  0a70 3066 2d64 6562 6961 6eff
10:31:31.279555 ens18 Out ARP, Reply p0f-debian is-at bc:24:11:58:31:ca (oui Unknown), length 28
	0x0000:  0001 0800 0604 0002 bc24 1158 31ca 82d0
	0x0010:  f6a8 d401 c34c 17fc 82d0 f6a1
10:31:31.327330 ens18 Out IP p0f-debian.52158 > dns.google.domain: 19729+ PTR? 216.49.180.194.in-addr.arpa. (45)
	0x0000:  4500 0049 6ebc 4000 4011 425f 82d0 f6a8
	0x0010:  0808 0808 cbbe 0035 0035 89cf 4d11 0100
	0x0020:  0001 0000 0000 0000 0332 3136 0234 3903
	0x0030:  3138 3003 3139 3407 696e 2d61 6464 7204
	0x0040:  6172 7061 0000 0c00 01
10:31:31.358983 ens18 Out ARP, Request who-has _gateway tell p0f-debian, length 28
	0x0000:  0001 0800 0604 0001 bc24 1158 31ca 82d0
	0x0010:  f6a8 0000 0000 0000 82d0 f6a1
10:31:46.661557 ens18 Out IP p0f-debian.5227 > 207.90.244.24.26200: Flags [R.], seq 0, ack 1410703063, win 0, length 0
	0x0000:  4500 0028 0000 4000 4006 fde3 82d0 f6a8
	0x0010:  cf5a f418 146b 6658 0000 0000 5415 9ed7
	0x0020:  5014 0000 0534 0000
10:31:46.687306 ens18 Out IP p0f-debian.48818 > dns.google.domain: 53839+ PTR? 24.244.90.207.in-addr.arpa. (44)
	0x0000:  4500 0048 2767 4000 4011 89b5 82d0 f6a8
	0x0010:  0808 0808 beb2 0035 0034 89ce d24f 0100
	0x0020:  0001 0000 0000 0000 0232 3403 3234 3402
	0x0030:  3930 0332 3037 0769 6e2d 6164 6472 0461
	0x0040:  7270 6100 000c 0001
10:31:55.037678 ens18 Out IP p0f-debian.http-alt > mamfac.my.affordmyfinance.com.49317: Flags [R.], seq 0, ack 1180694100, win 0, length 0
	0x0000:  4500 0028 0000 4000 4006 00b1 82d0 f6a8
	0x0010:  4e80 7226 1f90 c0a5 0000 0000 465f f654
	0x0020:  5014 0000 58c7 0000
10:31:55.903299 ens18 Out IP p0f-debian.33274 > dns.google.domain: 43509+ PTR? 38.114.128.78.in-addr.arpa. (44)
	0x0000:  4500 0048 0805 4000 4011 a917 82d0 f6a8
	0x0010:  0808 0808 81fa 0035 0034 89ce a9f5 0100
	0x0020:  0001 0000 0000 0000 0233 3803 3131 3403
	0x0030:  3132 3802 3738 0769 6e2d 6164 6472 0461
	0x0040:  7270 6100 000c 0001
10:32:00.079799 ens18 Out ARP, Reply p0f-debian is-at bc:24:11:58:31:ca (oui Unknown), length 28
	0x0000:  0001 0800 0604 0002 bc24 1158 31ca 82d0
	0x0010:  f6a8 d401 c34c 17fc 82d0 f6a1
10:32:03.457518 ens18 Out IP p0f-debian.4374 > o49.scanner.modat.io.36323: Flags [R.], seq 0, ack 47927085, win 0, length 0
	0x0000:  4500 0028 0000 4000 4006 57aa 82d0 f6a8
	0x0010:  3344 3669 1116 8de3 0000 0000 02db 4f2d
	0x0020:  5014 0000 dba8 0000
10:32:04.095311 ens18 Out IP p0f-debian.32822 > dns.google.domain: 53214+ PTR? 105.54.68.51.in-addr.arpa. (43)
	0x0000:  4500 0047 a652 4000 4011 0acb 82d0 f6a8
	0x0010:  0808 0808 8036 0035 0033 89cd cfde 0100
	0x0020:  0001 0000 0000 0000 0331 3035 0235 3402
	0x0030:  3638 0235 3107 696e 2d61 6464 7204 6172
	0x0040:  7061 0000 0c00 01
10:32:06.022049 ens18 Out IP p0f-debian.printer > 207.90.244.20.10163: Flags [R.], seq 0, ack 1901706313, win 0, length 0
	0x0000:  4500 0028 0000 4000 4006 fde7 82d0 f6a8
	0x0010:  cf5a f414 0203 27b3 0000 0000 7159 bc49
	0x0020:  5014 0000 1b8f 0000
10:32:06.143288 ens18 Out IP p0f-debian.50025 > dns.google.domain: 16594+ PTR? 20.244.90.207.in-addr.arpa. (44)
	0x0000:  4500 0048 a343 4000 4011 0dd9 82d0 f6a8
	0x0010:  0808 0808 c369 0035 0034 89ce 40d2 0100
	0x0020:  0001 0000 0000 0000 0232 3003 3234 3402
	0x0030:  3930 0332 3037 0769 6e2d 6164 6472 0461
	0x0040:  7270 6100 000c 0001
10:32:08.478997 ens18 Out ARP, Request who-has _gateway tell p0f-debian, length 28
	0x0000:  0001 0800 0604 0001 bc24 1158 31ca 82d0
	0x0010:  f6a8 0000 0000 0000 82d0 f6a1
10:32:26.986759 ens18 Out IP p0f-debian.3793 > 207.90.244.24.26200: Flags [R.], seq 0, ack 1511368959, win 0, length 0
	0x0000:  4500 0028 0000 4000 4006 fde3 82d0 f6a8
	0x0010:  cf5a f418 0ed1 6658 0000 0000 5a15 a8ff
	0x0020:  5014 0000 faa5 0000
10:32:31.999576 ens18 Out ARP, Reply p0f-debian is-at bc:24:11:58:31:ca (oui Unknown), length 28
	0x0000:  0001 0800 0604 0002 bc24 1158 31ca 82d0
	0x0010:  f6a8 d401 c34c 17fc 82d0 f6a1
10:32:33.643123 ens18 Out IP p0f-debian.3122 > 196.251.81.21.56094: Flags [R.], seq 0, ack 882727328, win 0, length 0
	0x0000:  4500 0028 0000 4000 4006 ab46 82d0 f6a8
	0x0010:  c4fb 5115 0c32 db1e 0000 0000 349d 59a0
	0x0020:  5014 0000 aab8 0000
10:32:33.791277 ens18 Out IP p0f-debian.50391 > dns.google.domain: 55027+ PTR? 21.81.251.196.in-addr.arpa. (44)
	0x0000:  4500 0048 913a 4000 4011 1fe2 82d0 f6a8
	0x0010:  0808 0808 c4d7 0035 0034 89ce d6f3 0100
	0x0020:  0001 0000 0000 0000 0232 3102 3831 0332
	0x0030:  3531 0331 3936 0769 6e2d 6164 6472 0461
	0x0040:  7270 6100 000c 0001
10:33:03.757241 ens18 Out IP p0f-debian.1337 > 196.251.71.79.56857: Flags [R.], seq 0, ack 1171618971, win 0, length 0
	0x0000:  4500 0028 0000 4000 4006 b50c 82d0 f6a8
	0x0010:  c4fb 474f 0539 de19 0000 0000 45d5 7c9b
	0x0020:  5014 0000 8449 0000
10:33:04.511337 ens18 Out IP p0f-debian.48637 > dns.google.domain: 34529+ PTR? 79.71.251.196.in-addr.arpa. (44)
	0x0000:  4500 0048 6cfd 4000 4011 441f 82d0 f6a8
	0x0010:  0808 0808 bdfd 0035 0034 89ce 86e1 0100
	0x0020:  0001 0000 0000 0000 0237 3902 3731 0332
	0x0030:  3531 0331 3936 0769 6e2d 6164 6472 0461
	0x0040:  7270 6100 000c 0001
10:33:05.869150 ens18 Out IP p0f-debian.449 > 207.90.244.21.26200: Flags [R.], seq 0, ack 4011016083, win 0, length 0
	0x0000:  4500 0028 0000 4000 4006 fde6 82d0 f6a8
	0x0010:  cf5a f415 01c1 6658 0000 0000 ef13 3f93
	0x0020:  5014 0000 dc26 0000
10:33:06.288024 ens18 Out IP p0f-debian.4043 > 103.56.61.130.60519: Flags [R.], seq 0, ack 887139336, win 0, length 0
	0x0000:  4500 0028 0000 4000 4006 1c9d 82d0 f6a8
	0x0010:  6738 3d82 0fcb ec67 0000 0000 34e0 ac08
	0x0020:  5014 0000 b481 0000
10:33:06.559316 ens18 Out IP p0f-debian.42671 > dns.google.domain: 36111+ PTR? 21.244.90.207.in-addr.arpa. (44)
	0x0000:  4500 0048 254f 4000 4011 8bcd 82d0 f6a8
	0x0010:  0808 0808 a6af 0035 0034 89ce 8d0f 0100
	0x0020:  0001 0000 0000 0000 0232 3103 3234 3402
	0x0030:  3930 0332 3037 0769 6e2d 6164 6472 0461
	0x0040:  7270 6100 000c 0001
10:33:06.602980 ens18 Out IP p0f-debian.33683 > dns.google.domain: 7801+ PTR? 130.61.56.103.in-addr.arpa. (44)
	0x0000:  4500 0048 17fb 4000 4011 9921 82d0 f6a8
	0x0010:  0808 0808 8393 0035 0034 89ce 1e79 0100
	0x0020:  0001 0000 0000 0000 0331 3330 0236 3102
	0x0030:  3536 0331 3033 0769 6e2d 6164 6472 0461
	0x0040:  7270 6100 000c 0001
10:33:08.799617 ens18 Out ARP, Reply p0f-debian is-at bc:24:11:58:31:ca (oui Unknown), length 28
	0x0000:  0001 0800 0604 0002 bc24 1158 31ca 82d0
	0x0010:  f6a8 d401 c34c 17fc 82d0 f6a1
10:33:08.894981 ens18 Out ARP, Request who-has _gateway tell p0f-debian, length 28
	0x0000:  0001 0800 0604 0001 bc24 1158 31ca 82d0
	0x0010:  f6a8 0000 0000 0000 82d0 f6a1
10:33:49.561921 ens18 Out IP p0f-debian.telnet > bb-33-179.018.net.il.48676: Flags [R.], seq 0, ack 2659491024, win 0, length 0
	0x0000:  4500 0028 0000 4000 4006 11c2 82d0 f6a8
	0x0010:  8de2 21b3 0017 be24 0000 0000 9e84 9cd0
	0x0020:  5014 0000 8d31 0000
10:33:49.567292 ens18 Out IP p0f-debian.58206 > dns.google.domain: 40374+ PTR? 179.33.226.141.in-addr.arpa. (45)
	0x0000:  4500 0049 f4e0 4000 4011 bc3a 82d0 f6a8
	0x0010:  0808 0808 e35e 0035 0035 89cf 9db6 0100
	0x0020:  0001 0000 0000 0000 0331 3739 0233 3303
	0x0030:  3232 3603 3134 3107 696e 2d61 6464 7204
	0x0040:  6172 7061 0000 0c00 01
10:33:54.639664 ens18 Out ARP, Reply p0f-debian is-at bc:24:11:58:31:ca (oui Unknown), length 28
	0x0000:  0001 0800 0604 0002 bc24 1158 31ca 82d0
	0x0010:  f6a8 d401 c34c 17fc 82d0 f6a1
10:33:54.718991 ens18 Out ARP, Request who-has _gateway tell p0f-debian, length 28
	0x0000:  0001 0800 0604 0001 bc24 1158 31ca 82d0
	0x0010:  f6a8 0000 0000 0000 82d0 f6a1
10:34:00.641934 ens18 Out IP p0f-debian.ssh > 196.251.87.175.54450: Flags [R.], seq 0, ack 1384033340, win 0, length 0
	0x0000:  4500 0028 0000 4000 4006 a4ac 82d0 f6a8
	0x0010:  c4fb 57af 0016 d4b2 0000 0000 527e ac3c
	0x0020:  5014 0000 4629 0000
10:34:28.401155 ens18 Out IP p0f-debian.9038 > bed.census.shodan.io.26200: Flags [R.], seq 0, ack 2271716873, win 0, length 0
	0x0000:  4500 0028 0000 4000 4006 dfda 82d0 f6a8
	0x0010:  4017 a165 234e 6658 0000 0000 8767 a609
	0x0020:  5014 0000 9dc3 0000
10:34:28.479272 ens18 Out IP p0f-debian.43001 > dns.google.domain: 58508+ PTR? 101.161.23.64.in-addr.arpa. (44)
	0x0000:  4500 0048 e01e 4000 4011 d0fd 82d0 f6a8
	0x0010:  0808 0808 a7f9 0035 0034 89ce e48c 0100
	0x0020:  0001 0000 0000 0000 0331 3031 0331 3631
	0x0030:  0232 3302 3634 0769 6e2d 6164 6472 0461
	0x0040:  7270 6100 000c 0001
10:34:28.919422 ens18 Out IP p0f-debian.mysql > ec2-3-238-191-229.compute-1.amazonaws.com.44142: Flags [R.], seq 0, ack 626037893, win 0, length 0
	0x0000:  4500 0028 0000 4000 4006 fd83 82d0 f6a8
	0x0010:  03ee bfe5 0cea ac6e 0000 0000 2550 9485
	0x0020:  5014 0000 ff55 0000
10:34:29.503316 ens18 Out IP p0f-debian.56710 > dns.google.domain: 4159+ PTR? 229.191.238.3.in-addr.arpa. (44)
	0x0000:  4500 0048 23f5 4000 4011 8d27 82d0 f6a8
	0x0010:  0808 0808 dd86 0035 0034 89ce 103f 0100
	0x0020:  0001 0000 0000 0000 0332 3239 0331 3931
	0x0030:  0332 3338 0133 0769 6e2d 6164 6472 0461
	0x0040:  7270 6100 000c 0001
10:34:30.772283 ens18 Out IP p0f-debian.6568 > 205.210.31.224.53787: Flags [R.], seq 0, ack 1344452626, win 0, length 0
	0x0000:  4560 0028 0000 4000 4006 d344 82d0 f6a8
	0x0010:  cdd2 1fe0 19a8 d21b 0000 0000 5022 b812
	0x0020:  5014 0000 54ac 0000
10:34:31.551262 ens18 Out IP p0f-debian.49238 > dns.google.domain: 59762+ PTR? 224.31.210.205.in-addr.arpa. (45)
	0x0000:  4500 0049 e1e4 4000 4011 cf36 82d0 f6a8
	0x0010:  0808 0808 c056 0035 0035 89cf e972 0100
	0x0020:  0001 0000 0000 0000 0332 3234 0233 3103
	0x0030:  3231 3003 3230 3507 696e 2d61 6464 7204
	0x0040:  6172 7061 0000 0c00 01
10:34:33.630993 ens18 Out ARP, Request who-has _gateway tell p0f-debian, length 28
	0x0000:  0001 0800 0604 0001 bc24 1158 31ca 82d0
	0x0010:  f6a8 0000 0000 0000 82d0 f6a1
10:34:35.839717 ens18 Out ARP, Reply p0f-debian is-at bc:24:11:58:31:ca (oui Unknown), length 28
	0x0000:  0001 0800 0604 0002 bc24 1158 31ca 82d0
	0x0010:  f6a8 d401 c34c 17fc 82d0 f6a1
10:34:50.909617 ens18 Out IP p0f-debian.9161 > 207.90.244.13.26200: Flags [R.], seq 0, ack 2988015961, win 0, length 0
	0x0000:  4500 0028 0000 4000 4006 fdee 82d0 f6a8
	0x0010:  cf5a f40d 23c9 6658 0000 0000 b219 8159
	0x0020:  5014 0000 b55a 0000
10:34:51.007288 ens18 Out IP p0f-debian.38602 > dns.google.domain: 54787+ PTR? 13.244.90.207.in-addr.arpa. (44)
	0x0000:  4500 0048 09c3 4000 4011 a759 82d0 f6a8
	0x0010:  0808 0808 96ca 0035 0034 89ce d603 0100
	0x0020:  0001 0000 0000 0000 0231 3303 3234 3402
	0x0030:  3930 0332 3037 0769 6e2d 6164 6472 0461
	0x0040:  7270 6100 000c 0001
10:34:55.387475 ens18 Out IP p0f-debian.7443 > 91.199.163.52.44207: Flags [R.], seq 0, ack 1750644383, win 0, length 0
	0x0000:  4500 0028 0000 4000 4006 c25b 82d0 f6a8
	0x0010:  5bc7 a334 1d13 acaf 0000 0000 6858 b69f
	0x0020:  5014 0000 4ea1 0000
10:34:56.127366 ens18 Out IP p0f-debian.54131 > dns.google.domain: 36558+ PTR? 52.163.199.91.in-addr.arpa. (44)
	0x0000:  4500 0048 6d4d 4000 4011 43cf 82d0 f6a8
	0x0010:  0808 0808 d373 0035 0034 89ce 8ece 0100
	0x0020:  0001 0000 0000 0000 0235 3203 3136 3303
	0x0030:  3139 3902 3931 0769 6e2d 6164 6472 0461
	0x0040:  7270 6100 000c 0001
10:35:12.189179 ens18 Out IP p0f-debian.8315 > adeptus.census.shodan.io.26200: Flags [R.], seq 0, ack 527373917, win 0, length 0
	0x0000:  4500 0028 0000 4000 4006 957a 82d0 f6a8
	0x0010:  92be 991e 207b 6658 0000 0000 1f6f 165d
	0x0020:  5014 0000 4ddb 0000
10:35:17.199686 ens18 Out ARP, Reply p0f-debian is-at bc:24:11:58:31:ca (oui Unknown), length 28
	0x0000:  0001 0800 0604 0002 bc24 1158 31ca 82d0
	0x0010:  f6a8 d401 c34c 17fc 82d0 f6a1
10:35:17.406980 ens18 Out ARP, Request who-has _gateway tell p0f-debian, length 28
	0x0000:  0001 0800 0604 0001 bc24 1158 31ca 82d0
	0x0010:  f6a8 0000 0000 0000 82d0 f6a1
10:35:18.579241 ens18 Out IP p0f-debian.8728 > 87.120.191.104.54606: Flags [R.], seq 0, ack 319010882, win 0, length 0
	0x0000:  4500 0028 0000 4000 4006 aa76 82d0 f6a8
	0x0010:  5778 bf68 2218 d54e 0000 0000 1303 b842
	0x0020:  5014 0000 5cca 0000
10:35:18.655253 ens18 Out IP p0f-debian.42521 > dns.google.domain: 36446+ PTR? 104.191.120.87.in-addr.arpa. (45)
	0x0000:  4500 0049 7a02 4000 4011 3719 82d0 f6a8
	0x0010:  0808 0808 a619 0035 0035 89cf 8e5e 0100
	0x0020:  0001 0000 0000 0000 0331 3034 0331 3931
	0x0030:  0331 3230 0238 3707 696e 2d61 6464 7204
	0x0040:  6172 7061 0000 0c00 01
10:35:35.643058 ens18 Out IP p0f-debian.9919 > deimos.census.shodan.io.26200: Flags [R.], seq 0, ack 838603793, win 0, length 0
	0x0000:  4500 0028 0000 4000 4006 9afa 82d0 f6a8
	0x0010:  8fc6 9696 26bf 6658 0000 0000 31fc 1411
	0x0020:  5014 0000 3cd6 0000
10:35:36.063280 ens18 Out IP p0f-debian.51715 > dns.google.domain: 47709+ PTR? 150.150.198.143.in-addr.arpa. (46)
	0x0000:  4500 004a 3ec3 4000 4011 7257 82d0 f6a8
	0x0010:  0808 0808 ca03 0035 0036 89d0 ba5d 0100
	0x0020:  0001 0000 0000 0000 0331 3530 0331 3530
	0x0030:  0331 3938 0331 3433 0769 6e2d 6164 6472
	0x0040:  0461 7270 6100 000c 0001
10:35:40.619844 ens18 Out IP p0f-debian.3525 > 194.180.49.216.56806: Flags [R.], seq 0, ack 2602872862, win 0, length 0
	0x0000:  4540 0028 0000 4000 4006 cc8a 82d0 f6a8
	0x0010:  c2b4 31d8 0dc5 dde6 0000 0000 9b24 b01e
	0x0020:  5014 0000 0adc 0000
10:35:59.933368 ens18 Out IP p0f-debian.9869 > 207.90.244.21.29011: Flags [R.], seq 0, ack 2348126234, win 0, length 0
	0x0000:  4500 0028 0000 4000 4006 fde6 82d0 f6a8
	0x0010:  cf5a f415 268d 7153 0000 0000 8bf5 901a
	0x0020:  5014 0000 bef6 0000
10:36:04.959804 ens18 Out ARP, Reply p0f-debian is-at bc:24:11:58:31:ca (oui Unknown), length 28
	0x0000:  0001 0800 0604 0002 bc24 1158 31ca 82d0
	0x0010:  f6a8 d401 c34c 17fc 82d0 f6a1
10:36:05.023000 ens18 Out ARP, Request who-has _gateway tell p0f-debian, length 28
	0x0000:  0001 0800 0604 0001 bc24 1158 31ca 82d0
	0x0010:  f6a8 0000 0000 0000 82d0 f6a1
10:36:17.160450 ens18 Out IP p0f-debian.8728 > 103.102.230.4.58571: Flags [R.], seq 0, ack 2840946531, win 0, length 0
	0x0000:  4500 0028 0000 4000 4006 73ec 82d0 f6a8
	0x0010:  6766 e604 2218 e4cb 0000 0000 a955 6763
	0x0020:  5014 0000 d14f 0000
10:36:18.047306 ens18 Out IP p0f-debian.39669 > dns.google.domain: 4875+ PTR? 4.230.102.103.in-addr.arpa. (44)
	0x0000:  4500 0048 4537 4000 4011 6be5 82d0 f6a8
	0x0010:  0808 0808 9af5 0035 0034 89ce 130b 0100
	0x0020:  0001 0000 0000 0000 0134 0332 3330 0331
	0x0030:  3032 0331 3033 0769 6e2d 6164 6472 0461
	0x0040:  7270 6100 000c 0001
10:36:27.810233 ens18 Out IP p0f-debian.netstat > chocolate.scanf.shodan.io.24858: Flags [R.], seq 0, ack 830708449, win 0, length 0
	0x0000:  4510 0028 0000 4000 4006 6e95 82d0 f6a8
	0x0010:  a5e3 acce 000f 611a 0000 0000 3183 9ae1
	0x0020:  5014 0000 b617 0000
10:36:28.287381 ens18 Out IP p0f-debian.37021 > dns.google.domain: 287+ PTR? 206.172.227.165.in-addr.arpa. (46)
	0x0000:  4500 004a d30a 4000 4011 de0f 82d0 f6a8
	0x0010:  0808 0808 909d 0035 0036 89d0 011f 0100
	0x0020:  0001 0000 0000 0000 0332 3036 0331 3732
	0x0030:  0332 3237 0331 3635 0769 6e2d 6164 6472
	0x0040:  0461 7270 6100 000c 0001
10:36:34.771104 ens18 Out IP p0f-debian.4282 > malware-hunter.census.shodan.io.24858: Flags [R.], seq 0, ack 4233391713, win 0, length 0
	0x0000:  4500 0028 0000 4000 4006 b144 82d0 f6a8
	0x0010:  42f0 cd22 10ba 611a 0000 0000 fc54 6e61
	0x0020:  5014 0000 49ba 0000
10:36:35.455272 ens18 Out IP p0f-debian.38050 > dns.google.domain: 63716+ PTR? 34.205.240.66.in-addr.arpa. (44)
	0x0000:  4500 0048 e9aa 4000 4011 c771 82d0 f6a8
	0x0010:  0808 0808 94a2 0035 0034 89ce f8e4 0100
	0x0020:  0001 0000 0000 0000 0233 3403 3230 3503
	0x0030:  3234 3002 3636 0769 6e2d 6164 6472 0461
	0x0040:  7270 6100 000c 0001
10:36:39.839008 ens18 Out ARP, Request who-has _gateway tell p0f-debian, length 28
	0x0000:  0001 0800 0604 0001 bc24 1158 31ca 82d0
	0x0010:  f6a8 0000 0000 0000 82d0 f6a1
10:36:44.251367 ens18 Out IP p0f-debian.2379 > 194.180.49.216.56806: Flags [R.], seq 0, ack 3675749939, win 0, length 0
	0x0000:  4540 0028 0000 4000 4006 cc8a 82d0 f6a8
	0x0010:  c2b4 31d8 094b dde6 0000 0000 db17 7e33
	0x0020:  5014 0000 014e 0000
10:36:47.719448 ens18 Out IP p0f-debian.nfs > azpdcsl44mjn.stretchoid.com.53291: Flags [R.], seq 0, ack 1423016301, win 0, length 0
	0x0000:  4500 0028 0000 4000 4006 e082 82d0 f6a8
	0x0010:  8777 595d 0801 d02b 0000 0000 54d1 816d
	0x0020:  5014 0000 a717 0000
10:36:47.743283 ens18 Out IP p0f-debian.58773 > dns.google.domain: 39593+ PTR? 93.89.119.135.in-addr.arpa. (44)
	0x0000:  4500 0048 28a8 4000 4011 8874 82d0 f6a8
	0x0010:  0808 0808 e595 0035 0034 89ce 9aa9 0100
	0x0020:  0001 0000 0000 0000 0239 3302 3839 0331
	0x0030:  3139 0331 3335 0769 6e2d 6164 6472 0461
	0x0040:  7270 6100 000c 0001
10:36:49.279802 ens18 Out ARP, Reply p0f-debian is-at bc:24:11:58:31:ca (oui Unknown), length 28
	0x0000:  0001 0800 0604 0002 bc24 1158 31ca 82d0
	0x0010:  f6a8 d401 c34c 17fc 82d0 f6a1
10:37:24.160090 ens18 Out IP p0f-debian.441 > 207.90.244.11.26200: Flags [R.], seq 0, ack 4158254073, win 0, length 0
	0x0000:  4500 0028 0000 4000 4006 fdf0 82d0 f6a8
	0x0010:  cf5a f40b 01b9 6658 0000 0000 f7d9 ebf9
	0x0020:  5014 0000 270c 0000
10:37:24.607277 ens18 Out IP p0f-debian.40178 > dns.google.domain: 29264+ PTR? 11.244.90.207.in-addr.arpa. (44)
	0x0000:  4500 0048 1893 4000 4011 9889 82d0 f6a8
	0x0010:  0808 0808 9cf2 0035 0034 89ce 7250 0100
	0x0020:  0001 0000 0000 0000 0231 3103 3234 3402
	0x0030:  3930 0332 3037 0769 6e2d 6164 6472 0461
	0x0040:  7270 6100 000c 0001
10:37:29.246998 ens18 Out ARP, Request who-has _gateway tell p0f-debian, length 28
	0x0000:  0001 0800 0604 0001 bc24 1158 31ca 82d0
	0x0010:  f6a8 0000 0000 0000 82d0 f6a1
10:37:34.825915 ens18 Out IP p0f-debian.2322 > 224.211.203.35.bc.googleusercontent.com.57270: Flags [R.], seq 0, ack 3599736060, win 0, length 0
	0x0000:  4500 0028 0000 4000 4006 c9ab 82d0 f6a8
	0x0010:  23cb d3e0 0912 dfb6 0000 0000 d68f 9cfc
	0x0020:  5014 0000 e256 0000
10:37:34.847256 ens18 Out IP p0f-debian.53621 > dns.google.domain: 55971+ PTR? 224.211.203.35.in-addr.arpa. (45)
	0x0000:  4500 0049 36eb 4000 4011 7a30 82d0 f6a8
	0x0010:  0808 0808 d175 0035 0035 89cf daa3 0100
	0x0020:  0001 0000 0000 0000 0332 3234 0332 3131
	0x0030:  0332 3033 0233 3507 696e 2d61 6464 7204
	0x0040:  6172 7061 0000 0c00 01
10:37:39.760009 ens18 Out IP p0f-debian.3227 > o48.scanner.modat.io.48168: Flags [R.], seq 0, ack 3081563997, win 0, length 0
	0x0000:  4500 0028 0000 4000 4006 1265 82d0 f6a8
	0x0010:  d9b6 d53b 0c9b bc28 0000 0000 b7ac ef5d
	0x0020:  5014 0000 1797 0000
10:37:39.839800 ens18 Out ARP, Reply p0f-debian is-at bc:24:11:58:31:ca (oui Unknown), length 28
	0x0000:  0001 0800 0604 0002 bc24 1158 31ca 82d0
	0x0010:  f6a8 d401 c34c 17fc 82d0 f6a1
10:37:39.967242 ens18 Out IP p0f-debian.33412 > dns.google.domain: 2817+ PTR? 59.213.182.217.in-addr.arpa. (45)
	0x0000:  4500 0049 a2eb 4000 4011 0e30 82d0 f6a8
	0x0010:  0808 0808 8284 0035 0035 89cf 0b01 0100
	0x0020:  0001 0000 0000 0000 0235 3903 3231 3303
	0x0030:  3138 3203 3231 3707 696e 2d61 6464 7204
	0x0040:  6172 7061 0000 0c00 01
10:37:56.276455 ens18 Out IP p0f-debian.5917 > waffles.scanf.shodan.io.26200: Flags [R.], seq 0, ack 578299400, win 0, length 0
	0x0000:  4500 0028 0000 4000 4006 aa03 82d0 f6a8
	0x0010:  a45c 72f7 171d 6658 0000 0000 2278 2608
	0x0020:  5014 0000 590e 0000
10:37:56.351258 ens18 Out IP p0f-debian.46319 > dns.google.domain: 5400+ PTR? 247.114.92.164.in-addr.arpa. (45)
	0x0000:  4500 0049 2a58 4000 4011 86c3 82d0 f6a8
	0x0010:  0808 0808 b4ef 0035 0035 89cf 1518 0100
	0x0020:  0001 0000 0000 0000 0332 3437 0331 3134
	0x0030:  0239 3203 3136 3407 696e 2d61 6464 7204
	0x0040:  6172 7061 0000 0c00 01
10:38:01.502985 ens18 Out ARP, Request who-has _gateway tell p0f-debian, length 28
	0x0000:  0001 0800 0604 0001 bc24 1158 31ca 82d0
	0x0010:  f6a8 0000 0000 0000 82d0 f6a1
10:38:09.623603 ens18 Out IP p0f-debian.1251 > 196.251.81.21.59286: Flags [R.], seq 0, ack 2790048911, win 0, length 0
	0x0000:  4500 0028 0000 4000 4006 ab46 82d0 f6a8
	0x0010:  c4fb 5115 04e3 e796 0000 0000 a64c c48f
	0x0020:  5014 0000 c8f0 0000
10:38:13.114418 ens18 Out IP p0f-debian.7895 > 194.180.49.217.57144: Flags [R.], seq 0, ack 1796769731, win 0, length 0
	0x0000:  4540 0028 0000 4000 4006 cc89 82d0 f6a8
	0x0010:  c2b4 31d9 1ed7 df38 0000 0000 6b18 87c3
	0x0020:  5014 0000 50de 0000
10:38:13.759324 ens18 Out IP p0f-debian.45956 > dns.google.domain: 19736+ PTR? 217.49.180.194.in-addr.arpa. (45)
	0x0000:  4500 0049 5236 4000 4011 5ee5 82d0 f6a8
	0x0010:  0808 0808 b384 0035 0035 89cf 4d18 0100
	0x0020:  0001 0000 0000 0000 0332 3137 0234 3903
	0x0030:  3138 3003 3139 3407 696e 2d61 6464 7204
	0x0040:  6172 7061 0000 0c00 01
10:38:23.819404 ens18 Out IP p0f-debian.6339 > 194.180.49.216.56806: Flags [R.], seq 0, ack 1891765308, win 0, length 0
	0x0000:  4540 0028 0000 4000 4006 cc8a 82d0 f6a8
	0x0010:  c2b4 31d8 18c3 dde6 0000 0000 70c2 0c3c
	0x0020:  5014 0000 ce22 0000
10:38:27.234294 ens18 Out IP p0f-debian.1023 > pretzel.scanf.shodan.io.18438: Flags [R.], seq 0, ack 1638202458, win 0, length 0
	0x0000:  4500 0028 0000 4000 4006 8bc6 82d0 f6a8
	0x0010:  8b3b aa55 03ff 4806 0000 0000 61a4 fc5a
	0x0020:  5014 0000 56c2 0000
10:38:28.879844 ens18 Out ARP, Reply p0f-debian is-at bc:24:11:58:31:ca (oui Unknown), length 28
	0x0000:  0001 0800 0604 0002 bc24 1158 31ca 82d0
	0x0010:  f6a8 d401 c34c 17fc 82d0 f6a1
10:38:37.701684 ens18 Out IP p0f-debian.ssh > 196.251.87.175.43424: Flags [R.], seq 0, ack 1214926352, win 0, length 0
	0x0000:  4500 0028 0000 4000 4006 a4ac 82d0 f6a8
	0x0010:  c4fb 57af 0016 a9a0 0000 0000 486a 4e10
	0x0020:  5014 0000 d97b 0000
10:38:37.843429 ens18 Out IP p0f-debian.9066 > 222.150.216.162.bc.googleusercontent.com.57149: Flags [R.], seq 0, ack 3281359783, win 0, length 0
	0x0000:  4560 0028 0000 4000 4006 8740 82d0 f6a8
	0x0010:  a2d8 96de 236a df3d 0000 0000 c395 93a7
	0x0020:  5014 0000 a2bb 0000
10:38:38.335291 ens18 Out IP p0f-debian.41023 > dns.google.domain: 3353+ PTR? 222.150.216.162.in-addr.arpa. (46)
	0x0000:  4500 004a f385 4000 4011 bd94 82d0 f6a8
	0x0010:  0808 0808 a03f 0035 0036 89d0 0d19 0100
	0x0020:  0001 0000 0000 0000 0332 3232 0331 3530
	0x0030:  0332 3136 0331 3632 0769 6e2d 6164 6472
	0x0040:  0461 7270 6100 000c 0001
10:38:40.689568 ens18 Out IP p0f-debian.9796 > scanner-004.ch1.censys-scanner.com.40844: Flags [R.], seq 0, ack 4093705028, win 0, length 0
	0x0000:  4500 0028 0000 4000 4006 a0e2 82d0 f6a8
	0x0010:  a28e 7de6 2644 9f8c 0000 0000 f400 fb44
	0x0020:  5014 0000 60cc 0000
10:38:41.407281 ens18 Out IP p0f-debian.56157 > dns.google.domain: 35283+ PTR? 230.125.142.162.in-addr.arpa. (46)
	0x0000:  4500 004a 9985 4000 4011 1795 82d0 f6a8
	0x0010:  0808 0808 db5d 0035 0036 89d0 89d3 0100
	0x0020:  0001 0000 0000 0000 0332 3330 0331 3235
	0x0030:  0331 3432 0331 3632 0769 6e2d 6164 6472
	0x0040:  0461 7270 6100 000c 0001
10:38:50.191933 ens18 Out IP p0f-debian.ssh > 565075-vps1.wm.fyi.47770: Flags [R.], seq 0, ack 1381343207, win 0, length 0
	0x0000:  4500 0028 0000 4000 4006 a32a 82d0 f6a8
	0x0010:  c626 5806 0016 ba9a 0000 0000 5255 9fe7
	0x0020:  5014 0000 6b3d 0000
10:38:50.623269 ens18 Out IP p0f-debian.49602 > dns.google.domain: 31045+ PTR? 6.88.38.198.in-addr.arpa. (42)
	0x0000:  4500 0046 e143 4000 4011 cfda 82d0 f6a8
	0x0010:  0808 0808 c1c2 0035 0032 89cc 7945 0100
	0x0020:  0001 0000 0000 0000 0136 0238 3802 3338
	0x0030:  0331 3938 0769 6e2d 6164 6472 0461 7270
	0x0040:  6100 000c 0001
10:38:55.262981 ens18 Out ARP, Request who-has _gateway tell p0f-debian, length 28
	0x0000:  0001 0800 0604 0001 bc24 1158 31ca 82d0
	0x0010:  f6a8 0000 0000 0000 82d0 f6a1
10:38:55.575112 ens18 Out IP p0f-debian.9961 > 147.185.133.2.56180: Flags [R.], seq 0, ack 2557248893, win 0, length 0
	0x0000:  4500 0028 0000 4000 4006 a89b 82d0 f6a8
	0x0010:  93b9 8502 26e9 db74 0000 0000 986c 857d
	0x0020:  5014 0000 fd53 0000
10:38:55.743302 ens18 Out IP p0f-debian.47632 > dns.google.domain: 14734+ PTR? 2.133.185.147.in-addr.arpa. (44)
	0x0000:  4500 0048 8762 4000 4011 29ba 82d0 f6a8
	0x0010:  0808 0808 ba10 0035 0034 89ce 398e 0100
	0x0020:  0001 0000 0000 0000 0132 0331 3333 0331
	0x0030:  3835 0331 3437 0769 6e2d 6164 6472 0461
	0x0040:  7270 6100 000c 0001
10:38:55.853938 ens18 Out IP p0f-debian.46324 > dns.google.domain: 14734+ PTR? 2.133.185.147.in-addr.arpa. (44)
	0x0000:  4500 0048 2218 4000 4011 8f04 82d0 f6a8
	0x0010:  0808 0808 b4f4 0035 0034 89ce 398e 0100
	0x0020:  0001 0000 0000 0000 0132 0331 3333 0331
	0x0030:  3835 0331 3437 0769 6e2d 6164 6472 0461
	0x0040:  7270 6100 000c 0001
10:39:08.346497 ens18 Out IP p0f-debian.9723 > 236.150.216.162.bc.googleusercontent.com.50220: Flags [R.], seq 0, ack 1656336680, win 0, length 0
	0x0000:  4560 0028 0000 4000 4006 8732 82d0 f6a8
	0x0010:  a2d8 96ec 25fb c42c 0000 0000 62b9 b128
	0x0020:  5014 0000 fe88 0000
10:39:09.055288 ens18 Out IP p0f-debian.57176 > dns.google.domain: 7892+ PTR? 236.150.216.162.in-addr.arpa. (46)
	0x0000:  4500 004a 4912 4000 4011 6808 82d0 f6a8
	0x0010:  0808 0808 df58 0035 0036 89d0 1ed4 0100
	0x0020:  0001 0000 0000 0000 0332 3336 0331 3530
	0x0030:  0332 3136 0331 3632 0769 6e2d 6164 6472
	0x0040:  0461 7270 6100 000c 0001
10:39:11.276333 ens18 Out IP p0f-debian.omniorb > 192.159.99.101.43438: Flags [R.], seq 0, ack 2822815259, win 0, length 0
	0x0000:  4500 0028 0000 4000 4006 9d52 82d0 f6a8
	0x0010:  c09f 6365 1f98 a9ae 0000 0000 a840 be1b
	0x0020:  5014 0000 e2af 0000
10:39:12.127303 ens18 Out IP p0f-debian.38619 > dns.google.domain: 20772+ PTR? 101.99.159.192.in-addr.arpa. (45)
	0x0000:  4500 0049 7f8f 4000 4011 318c 82d0 f6a8
	0x0010:  0808 0808 96db 0035 0035 89cf 5124 0100
	0x0020:  0001 0000 0000 0000 0331 3031 0239 3903
	0x0030:  3135 3903 3139 3207 696e 2d61 6464 7204
	0x0040:  6172 7061 0000 0c00 01
10:39:13.359941 ens18 Out ARP, Reply p0f-debian is-at bc:24:11:58:31:ca (oui Unknown), length 28
	0x0000:  0001 0800 0604 0002 bc24 1158 31ca 82d0
	0x0010:  f6a8 d401 c34c 17fc 82d0 f6a1
10:39:21.941937 ens18 Out IP p0f-debian.7015 > biscuit.scanf.shodan.io.26200: Flags [R.], seq 0, ack 1413618827, win 0, length 0
	0x0000:  4500 0028 0000 4000 4006 4c4a 82d0 f6a8
	0x0010:  93b6 e156 1b67 6658 0000 0000 5442 1c8b
	0x0020:  5014 0000 cebd 0000
10:39:22.367286 ens18 Out IP p0f-debian.45271 > dns.google.domain: 39615+ PTR? 86.225.182.147.in-addr.arpa. (45)
	0x0000:  4500 0049 5c96 4000 4011 5485 82d0 f6a8
	0x0010:  0808 0808 b0d7 0035 0035 89cf 9abf 0100
	0x0020:  0001 0000 0000 0000 0238 3603 3232 3503
	0x0030:  3138 3203 3134 3707 696e 2d61 6464 7204
	0x0040:  6172 7061 0000 0c00 01
10:39:35.679674 ens18 Out IP p0f-debian.mdns > mdns.mcast.net.mdns: 0 PTR (QM)? _nmea-0183._tcp.local. (39)
	0x0000:  4500 0043 3b8f 4000 ff11 e5a5 82d0 f6a8
	0x0010:  e000 00fb 14e9 14e9 002f 5ab5 0000 0000
	0x0020:  0001 0000 0000 0000 0a5f 6e6d 6561 2d30
	0x0030:  3138 3304 5f74 6370 056c 6f63 616c 0000
	0x0040:  0c00 01
10:39:47.887498 ens18 Out IP p0f-debian.9999 > 207.90.244.27.18438: Flags [R.], seq 0, ack 4075826477, win 0, length 0
	0x0000:  4500 0028 0000 4000 4006 fde0 82d0 f6a8
	0x0010:  cf5a f41b 270f 4806 0000 0000 f2f0 2d2d
	0x0020:  5014 0000 e3ad 0000
10:39:52.959856 ens18 Out ARP, Reply p0f-debian is-at bc:24:11:58:31:ca (oui Unknown), length 28
	0x0000:  0001 0800 0604 0002 bc24 1158 31ca 82d0
	0x0010:  f6a8 d401 c34c 17fc 82d0 f6a1
10:39:53.118981 ens18 Out ARP, Request who-has _gateway tell p0f-debian, length 28
	0x0000:  0001 0800 0604 0001 bc24 1158 31ca 82d0
	0x0010:  f6a8 0000 0000 0000 82d0 f6a1
10:39:59.782065 ens18 Out IP p0f-debian.ssh > 157.245.98.29.49784: Flags [R.], seq 0, ack 454012743, win 0, length 0
	0x0000:  4500 0028 0000 4000 4006 c144 82d0 f6a8
	0x0010:  9df5 621d 0016 c278 0000 0000 1b0f af47
	0x0020:  5014 0000 a95f 0000
10:40:00.255289 ens18 Out IP p0f-debian.58747 > dns.google.domain: 37995+ PTR? 29.98.245.157.in-addr.arpa. (44)
	0x0000:  4500 0048 6016 4000 4011 5106 82d0 f6a8
	0x0010:  0808 0808 e57b 0035 0034 89ce 946b 0100
	0x0020:  0001 0000 0000 0000 0232 3902 3938 0332
	0x0030:  3435 0331 3537 0769 6e2d 6164 6472 0461
	0x0040:  7270 6100 000c 0001
10:40:05.298601 ens18 Out IP p0f-debian.3000 > recyber.net.50295: Flags [R.], seq 0, ack 4283194340, win 0, length 0
	0x0000:  4500 0028 0000 4000 4006 c396 82d0 f6a8
	0x0010:  59f8 a3c8 0bb8 c477 0000 0000 ff4c 5be4
	0x0020:  5014 0000 0d36 0000
10:40:05.375254 ens18 Out IP p0f-debian.40317 > dns.google.domain: 23642+ PTR? 200.163.248.89.in-addr.arpa. (45)
	0x0000:  4500 0049 2a79 4000 4011 86a2 82d0 f6a8
	0x0010:  0808 0808 9d7d 0035 0035 89cf 5c5a 0100
	0x0020:  0001 0000 0000 0000 0332 3030 0331 3633
	0x0030:  0332 3438 0238 3907 696e 2d61 6464 7204
	0x0040:  6172 7061 0000 0c00 01
10:40:11.007101 ens18 Out IP p0f-debian.56791 > vps-93-95-229-195.1984.is.ntp: NTPv4, Client, length 48
	0x0000:  45b8 004c f551 4000 4011 87fb 82d0 f6a8
	0x0010:  5d5f e5c3 ddd7 007b 0038 bce5 2300 0000
	0x0020:  0000 0000 0000 0000 0000 0000 0000 0000
	0x0030:  0000 0000 0000 0000 0000 0000 0000 0000
	0x0040:  0000 0000 768e ae66 c239 cdc5
10:40:11.519346 ens18 Out IP p0f-debian.60103 > dns.google.domain: 24162+ PTR? 195.229.95.93.in-addr.arpa. (44)
	0x0000:  4500 0048 ea89 4000 4011 c692 82d0 f6a8
	0x0010:  0808 0808 eac7 0035 0034 89ce 5e62 0100
	0x0020:  0001 0000 0000 0000 0331 3935 0332 3239
	0x0030:  0239 3502 3933 0769 6e2d 6164 6472 0461
	0x0040:  7270 6100 000c 0001
10:40:13.286611 ens18 Out IP p0f-debian.3522 > cereal.scanf.shodan.io.26200: Flags [R.], seq 0, ack 2431485555, win 0, length 0
	0x0000:  4500 0028 0000 4000 4006 ee0b 82d0 f6a8
	0x0010:  b280 20cb 0dc2 6658 0000 0000 90ed 8673
	0x0020:  5014 0000 d790 0000
10:40:13.567342 ens18 Out IP p0f-debian.53834 > dns.google.domain: 16353+ PTR? 203.32.128.178.in-addr.arpa. (45)
	0x0000:  4500 0049 d9eb 4000 4011 d72f 82d0 f6a8
	0x0010:  0808 0808 d24a 0035 0035 89cf 3fe1 0100
	0x0020:  0001 0000 0000 0000 0332 3033 0233 3203
	0x0030:  3132 3803 3137 3807 696e 2d61 6464 7204
	0x0040:  6172 7061 0000 0c00 01
10:40:30.025881 ens18 Out IP p0f-debian.7383 > 178.22.24.64.41761: Flags [R.], seq 0, ack 1743799511, win 0, length 0
	0x0000:  4500 0028 0000 4000 4006 f700 82d0 f6a8
	0x0010:  b216 1840 1cd7 a321 0000 0000 67f0 44d7
	0x0020:  5014 0000 ff40 0000
10:40:30.975325 ens18 Out IP p0f-debian.36970 > dns.google.domain: 6110+ PTR? 64.24.22.178.in-addr.arpa. (43)
	0x0000:  4500 0047 d408 4000 4011 dd14 82d0 f6a8
	0x0010:  0808 0808 906a 0035 0033 89cd 17de 0100
	0x0020:  0001 0000 0000 0000 0236 3402 3234 0232
	0x0030:  3203 3137 3807 696e 2d61 6464 7204 6172
	0x0040:  7061 0000 0c00 01
10:40:35.040146 ens18 Out ARP, Reply p0f-debian is-at bc:24:11:58:31:ca (oui Unknown), length 28
	0x0000:  0001 0800 0604 0002 bc24 1158 31ca 82d0
	0x0010:  f6a8 d401 c34c 17fc 82d0 f6a1
10:40:42.633430 ens18 Out IP p0f-debian.7381 > 178.22.24.64.41745: Flags [R.], seq 0, ack 568671582, win 0, length 0
	0x0000:  4500 0028 0000 4000 4006 f700 82d0 f6a8
	0x0010:  b216 1840 1cd5 a311 0000 0000 21e5 3d5e
	0x0020:  5014 0000 4cd7 0000
10:40:46.378909 ens18 Out IP p0f-debian.6036 > 45.142.195.99.52815: Flags [R.], seq 0, ack 366149741, win 0, length 0
	0x0000:  4500 0028 0000 4000 4006 d065 82d0 f6a8
	0x0010:  2d8e c363 1794 ce4f 0000 0000 15d3 006d
	0x0020:  5014 0000 4942 0000
10:40:47.359267 ens18 Out IP p0f-debian.42554 > dns.google.domain: 3916+ PTR? 99.195.142.45.in-addr.arpa. (44)
	0x0000:  4500 0048 2861 4000 4011 88bb 82d0 f6a8
	0x0010:  0808 0808 a63a 0035 0034 89ce 0f4c 0100
	0x0020:  0001 0000 0000 0000 0239 3903 3139 3503
	0x0030:  3134 3202 3435 0769 6e2d 6164 6472 0461
	0x0040:  7270 6100 000c 0001
10:40:47.646984 ens18 Out ARP, Request who-has _gateway tell p0f-debian, length 28
	0x0000:  0001 0800 0604 0001 bc24 1158 31ca 82d0
	0x0010:  f6a8 0000 0000 0000 82d0 f6a1
10:40:51.546357 ens18 Out IP p0f-debian.9996 > o30.scanner.modat.io.55094: Flags [R.], seq 0, ack 1463396264, win 0, length 0
	0x0000:  4500 0028 0000 4000 4006 3944 82d0 f6a8
	0x0010:  3625 51ee 270c d736 0000 0000 5739 a7a8
	0x0020:  5014 0000 b11f 0000
10:40:52.479349 ens18 Out IP p0f-debian.53622 > dns.google.domain: 34292+ PTR? 238.81.37.54.in-addr.arpa. (43)
	0x0000:  4500 0047 fd31 4000 4011 b3eb 82d0 f6a8
	0x0010:  0808 0808 d176 0035 0033 89cd 85f4 0100
	0x0020:  0001 0000 0000 0000 0332 3338 0238 3102
	0x0030:  3337 0235 3407 696e 2d61 6464 7204 6172
	0x0040:  7061 0000 0c00 01
10:41:09.645318 ens18 Out IP p0f-debian.telnet > 45-229-25-47.helloweb.net.br.39274: Flags [R.], seq 0, ack 3759853726, win 0, length 0
	0x0000:  4500 0028 0000 4000 4006 7a43 82d0 f6a8
	0x0010:  2de5 192f 0017 996a 0000 0000 e01a d09e
	0x0020:  5014 0000 a508 0000
10:41:09.887296 ens18 Out IP p0f-debian.34103 > dns.google.domain: 40997+ PTR? 47.25.229.45.in-addr.arpa. (43)
	0x0000:  4500 0047 f68f 4000 4011 ba8d 82d0 f6a8
	0x0010:  0808 0808 8537 0035 0033 89cd a025 0100
	0x0020:  0001 0000 0000 0000 0234 3702 3235 0332
	0x0030:  3239 0234 3507 696e 2d61 6464 7204 6172
	0x0040:  7061 0000 0c00 01
10:41:12.178705 ens18 Out IP p0f-debian.5050 > 205.210.31.35.51299: Flags [R.], seq 0, ack 1055533727, win 0, length 0
	0x0000:  4560 0028 0000 4000 4006 d401 82d0 f6a8
	0x0010:  cdd2 1f23 13ba c863 0000 0000 3eea 2a9f
	0x0020:  5014 0000 03bb 0000
10:41:12.959343 ens18 Out IP p0f-debian.37067 > dns.google.domain: 46091+ PTR? 35.31.210.205.in-addr.arpa. (44)
	0x0000:  4500 0048 cc0c 4000 4011 e50f 82d0 f6a8
	0x0010:  0808 0808 90cb 0035 0034 89ce b40b 0100
	0x0020:  0001 0000 0000 0000 0233 3502 3331 0332
	0x0030:  3130 0332 3035 0769 6e2d 6164 6472 0461
	0x0040:  7270 6100 000c 0001
10:41:14.719910 ens18 Out ARP, Reply p0f-debian is-at bc:24:11:58:31:ca (oui Unknown), length 28
	0x0000:  0001 0800 0604 0002 bc24 1158 31ca 82d0
	0x0010:  f6a8 d401 c34c 17fc 82d0 f6a1
10:41:20.286835 ens18 Out IP p0f-debian.8145 > mechanicus.census.shodan.io.26200: Flags [R.], seq 0, ack 653230087, win 0, length 0
	0x0000:  4500 0028 0000 4000 4006 aaf6 82d0 f6a8
	0x0010:  4017 d649 1fd1 6658 0000 0000 26ef 8007
	0x0020:  5014 0000 f2d6 0000
10:42:03.358053 ens18 Out IP p0f-debian.8230 > 207.90.244.2.26200: Flags [R.], seq 0, ack 2300748958, win 0, length 0
	0x0000:  4500 0028 0000 4000 4006 fdf9 82d0 f6a8
	0x0010:  cf5a f402 2026 6658 0000 0000 8922 a49e
	0x0020:  5014 0000 beba 0000
10:42:04.159297 ens18 Out IP p0f-debian.34384 > dns.google.domain: 9477+ PTR? 2.244.90.207.in-addr.arpa. (43)
	0x0000:  4500 0047 8f12 4000 4011 220b 82d0 f6a8
	0x0010:  0808 0808 8650 0035 0033 89cd 2505 0100
	0x0020:  0001 0000 0000 0000 0132 0332 3434 0239
	0x0030:  3003 3230 3707 696e 2d61 6464 7204 6172
	0x0040:  7061 0000 0c00 01
10:42:08.399959 ens18 Out ARP, Reply p0f-debian is-at bc:24:11:58:31:ca (oui Unknown), length 28
	0x0000:  0001 0800 0604 0002 bc24 1158 31ca 82d0
	0x0010:  f6a8 d401 c34c 17fc 82d0 f6a1
10:42:08.542996 ens18 Out ARP, Request who-has _gateway tell p0f-debian, length 28
	0x0000:  0001 0800 0604 0001 bc24 1158 31ca 82d0
	0x0010:  f6a8 0000 0000 0000 82d0 f6a1
10:42:25.486059 ens18 Out IP p0f-debian.2762 > butter.scanf.shodan.io.19330: Flags [R.], seq 0, ack 725196611, win 0, length 0
	0x0000:  4500 0028 0000 4000 4006 35c4 82d0 f6a8
	0x0010:  40e1 4ab2 0aca 4b82 0000 0000 2b39 9f43
	0x0020:  5014 0000 89fb 0000
10:42:25.663290 ens18 Out IP p0f-debian.55931 > dns.google.domain: 55203+ PTR? 178.74.225.64.in-addr.arpa. (44)
	0x0000:  4500 0048 fef8 4000 4011 b223 82d0 f6a8
	0x0010:  0808 0808 da7b 0035 0034 89ce d7a3 0100
	0x0020:  0001 0000 0000 0000 0331 3738 0237 3403
	0x0030:  3232 3502 3634 0769 6e2d 6164 6472 0461
	0x0040:  7270 6100 000c 0001
10:42:44.748130 ens18 Out IP p0f-debian.9784 > 38.210.203.35.bc.googleusercontent.com.53166: Flags [R.], seq 0, ack 3084495591, win 0, length 0
	0x0000:  4500 0028 0000 4000 4006 cb65 82d0 f6a8
	0x0010:  23cb d226 2638 cfae 0000 0000 b7d9 aae7
	0x0020:  5014 0000 e7bd 0000
10:42:45.119305 ens18 Out IP p0f-debian.36310 > dns.google.domain: 53604+ PTR? 38.210.203.35.in-addr.arpa. (44)
	0x0000:  4500 0048 9017 4000 4011 2105 82d0 f6a8
	0x0010:  0808 0808 8dd6 0035 0034 89ce d164 0100
	0x0020:  0001 0000 0000 0000 0233 3803 3231 3003
	0x0030:  3230 3302 3335 0769 6e2d 6164 6472 0461
	0x0040:  7270 6100 000c 0001
10:42:49.673299 ens18 Out IP p0f-debian.ssh > 209.38.84.200.50890: Flags [R.], seq 0, ack 2199748834, win 0, length 0
	0x0000:  4500 0028 0000 4000 4006 9b68 82d0 f6a8
	0x0010:  d126 54c8 0016 c6ca 0000 0000 831d 80e2
	0x0020:  5014 0000 4588 0000
10:42:49.760172 ens18 Out ARP, Reply p0f-debian is-at bc:24:11:58:31:ca (oui Unknown), length 28
	0x0000:  0001 0800 0604 0002 bc24 1158 31ca 82d0
	0x0010:  f6a8 d401 c34c 17fc 82d0 f6a1
10:42:50.239413 ens18 Out IP p0f-debian.35307 > dns.google.domain: 35427+ PTR? 200.84.38.209.in-addr.arpa. (44)
	0x0000:  4500 0048 3994 4000 4011 7788 82d0 f6a8
	0x0010:  0808 0808 89eb 0035 0034 89ce 8a63 0100
	0x0020:  0001 0000 0000 0000 0332 3030 0238 3402
	0x0030:  3338 0332 3039 0769 6e2d 6164 6472 0461
	0x0040:  7270 6100 000c 0001
10:43:08.231405 ens18 Out IP p0f-debian.91 > garden.census.shodan.io.26200: Flags [R.], seq 0, ack 2879664951, win 0, length 0
	0x0000:  4500 0028 0000 4000 4006 a994 82d0 f6a8
	0x0010:  d126 469c 005b 6658 0000 0000 aba4 3337
	0x0020:  5014 0000 d905 0000
10:43:08.482110 ens18 Out IP p0f-debian.https > 45.58.127.135.62747: Flags [R.], seq 0, ack 2724860138, win 0, length 0
	0x0000:  4500 0028 0000 4000 4006 1496 82d0 f6a8
	0x0010:  2d3a 7f87 01bb f51b 0000 0000 a26a 10ea
	0x0020:  5014 0000 df6a 0000
10:43:08.671289 ens18 Out IP p0f-debian.44252 > dns.google.domain: 64529+ PTR? 156.70.38.209.in-addr.arpa. (44)
	0x0000:  4500 0048 8124 4000 4011 2ff8 82d0 f6a8
	0x0010:  0808 0808 acdc 0035 0034 89ce fc11 0100
	0x0020:  0001 0000 0000 0000 0331 3536 0237 3002
	0x0030:  3338 0332 3039 0769 6e2d 6164 6472 0461
	0x0040:  7270 6100 000c 0001
10:43:08.714909 ens18 Out IP p0f-debian.57027 > dns.google.domain: 64113+ PTR? 135.127.58.45.in-addr.arpa. (44)
	0x0000:  4500 0048 586f 4000 4011 58ad 82d0 f6a8
	0x0010:  0808 0808 dec3 0035 0034 89ce fa71 0100
	0x0020:  0001 0000 0000 0000 0331 3335 0331 3237
	0x0030:  0235 3802 3435 0769 6e2d 6164 6472 0461
	0x0040:  7270 6100 000c 0001
10:43:13.310986 ens18 Out ARP, Request who-has _gateway tell p0f-debian, length 28
	0x0000:  0001 0800 0604 0001 bc24 1158 31ca 82d0
	0x0010:  f6a8 0000 0000 0000 82d0 f6a1
10:43:17.157980 ens18 Out IP p0f-debian.5555 > 94.74.182.167.37922: Flags [R.], seq 0, ack 2598320397, win 0, length 0
	0x0000:  4520 0028 0000 4000 4006 ac45 82d0 f6a8
	0x0010:  5e4a b6a7 15b3 9422 0000 0000 9adf 390d
	0x0020:  5014 0000 a3a3 0000
10:43:17.887310 ens18 Out IP p0f-debian.46571 > dns.google.domain: 16626+ PTR? 167.182.74.94.in-addr.arpa. (44)
	0x0000:  4500 0048 8a76 4000 4011 26a6 82d0 f6a8
	0x0010:  0808 0808 b5eb 0035 0034 89ce 40f2 0100
	0x0020:  0001 0000 0000 0000 0331 3637 0331 3832
	0x0030:  0237 3402 3934 0769 6e2d 6164 6472 0461
	0x0040:  7270 6100 000c 0001
10:43:19.992033 ens18 Out IP p0f-debian.ssh > 196.251.87.175.54897: Flags [R.], seq 0, ack 2947699686, win 0, length 0
	0x0000:  4500 0028 0000 4000 4006 a4ac 82d0 f6a8
	0x0010:  c4fb 57af 0016 d671 0000 0000 afb2 53e6
	0x0020:  5014 0000 3f8c 0000
10:43:22.160228 ens18 Out ARP, Reply p0f-debian is-at bc:24:11:58:31:ca (oui Unknown), length 28
	0x0000:  0001 0800 0604 0002 bc24 1158 31ca 82d0
	0x0010:  f6a8 d401 c34c 17fc 82d0 f6a1
10:43:31.451723 ens18 Out IP p0f-debian.9034 > pretzel.scanf.shodan.io.26200: Flags [R.], seq 0, ack 1227877533, win 0, length 0
	0x0000:  4500 0028 0000 4000 4006 8bc6 82d0 f6a8
	0x0010:  8b3b aa55 234a 6658 0000 0000 492f ec9d
	0x0020:  5014 0000 4157 0000
10:43:33.544681 ens18 Out IP p0f-debian.snpp > 196.251.69.205.46703: Flags [R.], seq 0, ack 3040441573, win 0, length 0
	0x0000:  4500 0028 0000 4000 4006 b68e 82d0 f6a8
	0x0010:  c4fb 45cd 01bc b66f 0000 0000 b539 74e5
	0x0020:  5014 0000 4944 0000
10:43:34.271301 ens18 Out IP p0f-debian.49699 > dns.google.domain: 46003+ PTR? 205.69.251.196.in-addr.arpa. (45)
	0x0000:  4500 0049 5179 4000 4011 5fa2 82d0 f6a8
	0x0010:  0808 0808 c223 0035 0035 89cf b3b3 0100
	0x0020:  0001 0000 0000 0000 0332 3035 0236 3903
	0x0030:  3235 3103 3139 3607 696e 2d61 6464 7204
	0x0040:  6172 7061 0000 0c00 01
10:43:47.633825 ens18 Out IP p0f-debian.99 > 45.142.154.87.58914: Flags [R.], seq 0, ack 3307697084, win 0, length 0
	0x0000:  4500 0028 0000 4000 4006 f971 82d0 f6a8
	0x0010:  2d8e 9a57 0063 e622 0000 0000 c527 73bc
	0x0020:  5014 0000 4f08 0000
10:43:48.607309 ens18 Out IP p0f-debian.55534 > dns.google.domain: 20181+ PTR? 87.154.142.45.in-addr.arpa. (44)
	0x0000:  4500 0048 3a3d 4000 4011 76df 82d0 f6a8
	0x0010:  0808 0808 d8ee 0035 0034 89ce 4ed5 0100
	0x0020:  0001 0000 0000 0000 0238 3703 3135 3403
	0x0030:  3134 3202 3435 0769 6e2d 6164 6472 0461
	0x0040:  7270 6100 000c 0001
10:43:48.959787 ens18 Out IP p0f-debian.36182 > dns.google.domain: 20181+ PTR? 87.154.142.45.in-addr.arpa. (44)
	0x0000:  4500 0048 f53d 4000 4011 bbde 82d0 f6a8
	0x0010:  0808 0808 8d56 0035 0034 89ce 4ed5 0100
	0x0020:  0001 0000 0000 0000 0238 3703 3135 3403
	0x0030:  3134 3202 3435 0769 6e2d 6164 6472 0461
	0x0040:  7270 6100 000c 0001
10:43:52.639927 ens18 Out ARP, Reply p0f-debian is-at bc:24:11:58:31:ca (oui Unknown), length 28
	0x0000:  0001 0800 0604 0002 bc24 1158 31ca 82d0
	0x0010:  f6a8 d401 c34c 17fc 82d0 f6a1
10:43:52.734981 ens18 Out ARP, Request who-has _gateway tell p0f-debian, length 28
	0x0000:  0001 0800 0604 0001 bc24 1158 31ca 82d0
	0x0010:  f6a8 0000 0000 0000 82d0 f6a1
10:43:55.451965 ens18 Out IP p0f-debian.2995 > o44.scanner.modat.io.54826: Flags [R.], seq 0, ack 3381930707, win 0, length 0
	0x0000:  4500 0028 0000 4000 4006 cf1c 82d0 f6a8
	0x0010:  a213 5027 0bb3 d62a 0000 0000 c994 2ad3
	0x0020:  5014 0000 6dd7 0000
10:43:55.775306 ens18 Out IP p0f-debian.52941 > dns.google.domain: 54582+ PTR? 39.80.19.162.in-addr.arpa. (43)
	0x0000:  4500 0047 5c6c 4000 4011 54b1 82d0 f6a8
	0x0010:  0808 0808 cecd 0035 0033 89cd d536 0100
	0x0020:  0001 0000 0000 0000 0233 3902 3830 0231
	0x0030:  3903 3136 3207 696e 2d61 6464 7204 6172
	0x0040:  7061 0000 0c00 01
10:44:06.059302 ens18 Out IP p0f-debian.8443 > prod-boron-nyc1-6.do.binaryedge.ninja.50789: Flags [R.], seq 0, ack 733416042, win 0, length 0
	0x0000:  4500 0028 0000 4000 4006 ba91 82d0 f6a8
	0x0010:  8e5d 7868 20fb c665 0000 0000 2bb7 0a6a
	0x0020:  5014 0000 1210 0000
10:44:07.039312 ens18 Out IP p0f-debian.50027 > dns.google.domain: 4277+ PTR? 104.120.93.142.in-addr.arpa. (45)
	0x0000:  4500 0049 c52e 4000 4011 ebec 82d0 f6a8
	0x0010:  0808 0808 c36b 0035 0035 89cf 10b5 0100
	0x0020:  0001 0000 0000 0000 0331 3034 0331 3230
	0x0030:  0239 3303 3134 3207 696e 2d61 6464 7204
	0x0040:  6172 7061 0000 0c00 01
10:44:09.936747 ens18 Out IP p0f-debian.9587 > 52.211.203.35.bc.googleusercontent.com.55774: Flags [R.], seq 0, ack 104648553, win 0, length 0
	0x0000:  4500 0028 0000 4000 4006 ca57 82d0 f6a8
	0x0010:  23cb d334 2573 d9de 0000 0000 063c cf69
	0x0020:  5014 0000 6a60 0000
10:44:10.111303 ens18 Out IP p0f-debian.54316 > dns.google.domain: 60403+ PTR? 52.211.203.35.in-addr.arpa. (44)
	0x0000:  4500 0048 130b 4000 4011 9e11 82d0 f6a8
	0x0010:  0808 0808 d42c 0035 0034 89ce ebf3 0100
	0x0020:  0001 0000 0000 0000 0235 3203 3231 3103
	0x0030:  3230 3302 3335 0769 6e2d 6164 6472 0461
	0x0040:  7270 6100 000c 0001
10:44:14.713605 ens18 Out IP p0f-debian.3330 > 194.180.49.216.56806: Flags [R.], seq 0, ack 2819138267, win 0, length 0
	0x0000:  4540 0028 0000 4000 4006 cc8a 82d0 f6a8
	0x0010:  c2b4 31d8 0d02 dde6 0000 0000 a808 a2db
	0x0020:  5014 0000 0bfe 0000
10:44:19.759950 ens18 Out ARP, Reply p0f-debian is-at bc:24:11:58:31:ca (oui Unknown), length 28
	0x0000:  0001 0800 0604 0002 bc24 1158 31ca 82d0
	0x0010:  f6a8 d401 c34c 17fc 82d0 f6a1
10:44:19.780388 ens18 Out IP p0f-debian.9272 > 133.211.203.35.bc.googleusercontent.com.54881: Flags [R.], seq 0, ack 788402, win 0, length 0
	0x0000:  4500 0028 0000 4000 4006 ca06 82d0 f6a8
	0x0010:  23cb d385 2438 d661 0000 0000 000c 07b2
	0x0020:  5014 0000 3caf 0000
10:44:20.351318 ens18 Out IP p0f-debian.51473 > dns.google.domain: 30583+ PTR? 133.211.203.35.in-addr.arpa. (45)
	0x0000:  4500 0049 43f2 4000 4011 6d29 82d0 f6a8
	0x0010:  0808 0808 c911 0035 0035 89cf 7777 0100
	0x0020:  0001 0000 0000 0000 0331 3333 0332 3131
	0x0030:  0332 3033 0233 3507 696e 2d61 6464 7204
	0x0040:  6172 7061 0000 0c00 01
10:44:26.696502 ens18 Out IP p0f-debian.9090 > scan-04c.shadowserver.org.46994: Flags [R.], seq 0, ack 1121331954, win 0, length 0
	0x0000:  4500 0028 0000 4000 4006 7d9b 82d0 f6a8
	0x0010:  b869 8b52 2382 b792 0000 0000 42d6 2af2
	0x0020:  5014 0000 a9be 0000
10:44:27.519301 ens18 Out IP p0f-debian.41506 > dns.google.domain: 54309+ PTR? 82.139.105.184.in-addr.arpa. (45)
	0x0000:  4500 0049 33f8 4000 4011 7d23 82d0 f6a8
	0x0010:  0808 0808 a222 0035 0035 89cf d425 0100
	0x0020:  0001 0000 0000 0000 0238 3203 3133 3903
	0x0030:  3130 3503 3138 3407 696e 2d61 6464 7204
	0x0040:  6172 7061 0000 0c00 01
10:45:05.132472 ens18 Out IP p0f-debian.8153 > o37.scanner.modat.io.49185: Flags [R.], seq 0, ack 3042097729, win 0, length 0
	0x0000:  4500 0028 0000 4000 4006 1beb 82d0 f6a8
	0x0010:  5b86 49e6 1fd9 c021 0000 0000 b552 ba41
	0x0020:  5014 0000 415c 0000
10:45:05.407261 ens18 Out IP p0f-debian.42535 > dns.google.domain: 39971+ PTR? 230.73.134.91.in-addr.arpa. (44)
	0x0000:  4500 0048 3410 4000 4011 7d0c 82d0 f6a8
	0x0010:  0808 0808 a627 0035 0034 89ce 9c23 0100
	0x0020:  0001 0000 0000 0000 0332 3330 0237 3303
	0x0030:  3133 3402 3931 0769 6e2d 6164 6472 0461
	0x0040:  7270 6100 000c 0001
10:45:10.160013 ens18 Out ARP, Reply p0f-debian is-at bc:24:11:58:31:ca (oui Unknown), length 28
	0x0000:  0001 0800 0604 0002 bc24 1158 31ca 82d0
	0x0010:  f6a8 d401 c34c 17fc 82d0 f6a1
10:45:10.302984 ens18 Out ARP, Request who-has _gateway tell p0f-debian, length 28
	0x0000:  0001 0800 0604 0001 bc24 1158 31ca 82d0
	0x0010:  f6a8 0000 0000 0000 82d0 f6a1
10:45:10.893784 ens18 Out IP p0f-debian.9410 > bed.census.shodan.io.26200: Flags [R.], seq 0, ack 2322049598, win 0, length 0
	0x0000:  4500 0028 0000 4000 4006 dfda 82d0 f6a8
	0x0010:  4017 a165 24c2 6658 0000 0000 8a67 aa3e
	0x0020:  5014 0000 951a 0000
10:45:15.700379 ens18 Out IP p0f-debian.2082 > 196.251.81.75.38086: Flags [R.], seq 0, ack 593723204, win 0, length 0
	0x0000:  4500 0028 0000 4000 4006 ab10 82d0 f6a8
	0x0010:  c4fb 514b 0822 94c6 0000 0000 2363 7f44
	0x0020:  5014 0000 e080 0000
10:45:16.671288 ens18 Out IP p0f-debian.54902 > dns.google.domain: 5926+ PTR? 75.81.251.196.in-addr.arpa. (44)
	0x0000:  4500 0048 aaa9 4000 4011 0673 82d0 f6a8
	0x0010:  0808 0808 d676 0035 0034 89ce 1726 0100
	0x0020:  0001 0000 0000 0000 0237 3502 3831 0332
	0x0030:  3531 0331 3936 0769 6e2d 6164 6472 0461
	0x0040:  7270 6100 000c 0001
10:45:46.420319 ens18 Out IP p0f-debian.9876 > 196.251.81.14.40819: Flags [R.], seq 0, ack 561231538, win 0, length 0
	0x0000:  4500 0028 0000 4000 4006 ab4d 82d0 f6a8
	0x0010:  c4fb 510e 2694 9f73 0000 0000 2173 b6b2
	0x0020:  5014 0000 8220 0000
10:45:47.391278 ens18 Out IP p0f-debian.47072 > dns.google.domain: 21020+ PTR? 14.81.251.196.in-addr.arpa. (44)
	0x0000:  4500 0048 289e 4000 4011 887e 82d0 f6a8
	0x0010:  0808 0808 b7e0 0035 0034 89ce 521c 0100
	0x0020:  0001 0000 0000 0000 0231 3402 3831 0332
	0x0030:  3531 0331 3936 0769 6e2d 6164 6472 0461
	0x0040:  7270 6100 000c 0001
10:45:48.551132 ens18 Out IP p0f-debian.8008 > 185.224.128.19.59169: Flags [R.], seq 0, ack 3008943556, win 0, length 0
	0x0000:  4500 0028 0000 4000 4006 8763 82d0 f6a8
	0x0010:  b9e0 8013 1f48 e721 0000 0000 b358 d5c4
	0x0020:  5014 0000 6cdc 0000
10:45:49.439265 ens18 Out IP p0f-debian.33821 > dns.google.domain: 31674+ PTR? 19.128.224.185.in-addr.arpa. (45)
	0x0000:  4500 0049 96fa 4000 4011 1a21 82d0 f6a8
	0x0010:  0808 0808 841d 0035 0035 89cf 7bba 0100
	0x0020:  0001 0000 0000 0000 0231 3903 3132 3803
	0x0030:  3232 3403 3138 3507 696e 2d61 6464 7204
	0x0040:  6172 7061 0000 0c00 01
10:45:51.440063 ens18 Out ARP, Reply p0f-debian is-at bc:24:11:58:31:ca (oui Unknown), length 28
	0x0000:  0001 0800 0604 0002 bc24 1158 31ca 82d0
	0x0010:  f6a8 d401 c34c 17fc 82d0 f6a1
10:45:51.518996 ens18 Out ARP, Request who-has _gateway tell p0f-debian, length 28
	0x0000:  0001 0800 0604 0001 bc24 1158 31ca 82d0
	0x0010:  f6a8 0000 0000 0000 82d0 f6a1
10:45:57.639374 ens18 Out IP p0f-debian.http > 159.223.216.152.41403: Flags [R.], seq 0, ack 779480869, win 0, length 0
	0x0000:  4500 0028 0000 4000 4006 48df 82d0 f6a8
	0x0010:  9fdf d898 0050 a1bb 0000 0000 2e75 ef25
	0x0020:  5014 0000 fe38 0000
10:45:58.655324 ens18 Out IP p0f-debian.51709 > dns.google.domain: 31404+ PTR? 152.216.223.159.in-addr.arpa. (46)
	0x0000:  4500 004a f2fd 4000 4011 be1c 82d0 f6a8
	0x0010:  0808 0808 c9fd 0035 0036 89d0 7aac 0100
	0x0020:  0001 0000 0000 0000 0331 3532 0332 3136
	0x0030:  0332 3233 0331 3539 0769 6e2d 6164 6472
	0x0040:  0461 7270 6100 000c 0001
10:46:00.869781 ens18 Out IP p0f-debian.8060 > 8.211.51.182.44128: Flags [R.], seq 0, ack 552809415, win 0, length 0
	0x0000:  4514 0028 0000 4000 4006 84ba 82d0 f6a8
	0x0010:  08d3 33b6 1f7c ac60 0000 0000 20f3 33c7
	0x0020:  5014 0000 d937 0000
10:46:01.727370 ens18 Out IP p0f-debian.38800 > dns.google.domain: 8173+ PTR? 182.51.211.8.in-addr.arpa. (43)
	0x0000:  4500 0047 cfd3 4000 4011 e149 82d0 f6a8
	0x0010:  0808 0808 9790 0035 0033 89cd 1fed 0100
	0x0020:  0001 0000 0000 0000 0331 3832 0235 3103
	0x0030:  3231 3101 3807 696e 2d61 6464 7204 6172
	0x0040:  7061 0000 0c00 01
10:46:03.053491 ens18 Out IP p0f-debian.https > 159.223.216.152.49190: Flags [R.], seq 0, ack 1359116887, win 0, length 0
	0x0000:  4500 0028 0000 4000 4006 48df 82d0 f6a8
	0x0010:  9fdf d898 01bb c026 0000 0000 5102 7a57
	0x0020:  5014 0000 30a4 0000
10:46:03.872319 ens18 Out IP p0f-debian.ssh > 159.223.216.152.51034: Flags [R.], seq 0, ack 4141415882, win 0, length 0
	0x0000:  4500 0028 0000 4000 4006 48df 82d0 f6a8
	0x0010:  9fdf d898 0016 c75a 0000 0000 f6d8 fdca
	0x0020:  5014 0000 01cb 0000
10:46:10.069005 ens18 Out IP p0f-debian.https > greffier.askarborist.com.39958: Flags [R.], seq 0, ack 3205853394, win 0, length 0
	0x0000:  4500 0028 0000 4000 4006 9f60 82d0 f6a8
	0x0010:  b9f4 6802 01bb 9c16 0000 0000 bf15 70d2
	0x0020:  5014 0000 46a7 0000
10:46:10.386214 ens18 Out IP p0f-debian.3100 > adeptus.census.shodan.io.26200: Flags [R.], seq 0, ack 862926272, win 0, length 0
	0x0000:  4500 0028 0000 4000 4006 957a 82d0 f6a8
	0x0010:  92be 991e 0c1c 6658 0000 0000 336f 35c0
	0x0020:  5014 0000 2ed7 0000
10:46:10.622816 ens18 Out IP p0f-debian.2225 > 147.185.133.94.57275: Flags [R.], seq 0, ack 2853915946, win 0, length 0
	0x0000:  4500 0028 0000 4000 4006 a83f 82d0 f6a8
	0x0010:  93b9 855e 08b1 dfbb 0000 0000 aa1b 4d2a
	0x0020:  5014 0000 3d8d 0000
10:46:10.943327 ens18 Out IP p0f-debian.35092 > dns.google.domain: 1708+ PTR? 2.104.244.185.in-addr.arpa. (44)
	0x0000:  4500 0048 dbd4 4000 4011 d547 82d0 f6a8
	0x0010:  0808 0808 8914 0035 0034 89ce 06ac 0100
	0x0020:  0001 0000 0000 0000 0132 0331 3034 0332
	0x0030:  3434 0331 3835 0769 6e2d 6164 6472 0461
	0x0040:  7270 6100 000c 0001
10:46:10.987040 ens18 Out IP p0f-debian.60285 > dns.google.domain: 40240+ PTR? 94.133.185.147.in-addr.arpa. (45)
	0x0000:  4500 0049 d34b 4000 4011 ddcf 82d0 f6a8
	0x0010:  0808 0808 eb7d 0035 0035 89cf 9d30 0100
	0x0020:  0001 0000 0000 0000 0239 3403 3133 3303
	0x0030:  3138 3503 3134 3707 696e 2d61 6464 7204
	0x0040:  6172 7061 0000 0c00 01
10:46:11.098587 ens18 Out IP p0f-debian.33365 > dns.google.domain: 40240+ PTR? 94.133.185.147.in-addr.arpa. (45)
	0x0000:  4500 0049 c818 4000 4011 e902 82d0 f6a8
	0x0010:  0808 0808 8255 0035 0035 89cf 9d30 0100
	0x0020:  0001 0000 0000 0000 0239 3403 3133 3303
	0x0030:  3138 3503 3134 3707 696e 2d61 6464 7204
	0x0040:  6172 7061 0000 0c00 01
10:46:13.252325 ens18 Out IP p0f-debian.ftp > 159.223.216.152.34916: Flags [R.], seq 0, ack 84807657, win 0, length 0
	0x0000:  4500 0028 0000 4000 4006 48df 82d0 f6a8
	0x0010:  9fdf d898 0015 8864 0000 0000 050e 0fe9
	0x0020:  5014 0000 206f 0000
10:46:13.760269 ens18 Out IP p0f-debian.8877 > recyber.net.42054: Flags [R.], seq 0, ack 3459369838, win 0, length 0
	0x0000:  4500 0028 0000 4000 4006 c20b 82d0 f6a8
	0x0010:  59f8 a553 22ad a446 0000 0000 ce31 cb6e
	0x0020:  5014 0000 d677 0000
10:46:15.119966 ens18 Out ARP, Reply p0f-debian is-at bc:24:11:58:31:ca (oui Unknown), length 28
	0x0000:  0001 0800 0604 0002 bc24 1158 31ca 82d0
	0x0010:  f6a8 d401 c34c 17fc 82d0 f6a1
10:46:23.147722 ens18 Out IP p0f-debian.8022 > azpdsg3hv6sy.stretchoid.com.40356: Flags [R.], seq 0, ack 1505847168, win 0, length 0
	0x0000:  4500 0028 0000 4000 4006 df05 82d0 f6a8
	0x0010:  287c b9d5 1f56 9da4 0000 0000 59c1 6780
	0x0020:  5014 0000 d5c9 0000
10:46:23.231308 ens18 Out IP p0f-debian.53640 > dns.google.domain: 2407+ PTR? 213.185.124.40.in-addr.arpa. (45)
	0x0000:  4500 0049 c9d5 4000 4011 e745 82d0 f6a8
	0x0010:  0808 0808 d188 0035 0035 89cf 0967 0100
	0x0020:  0001 0000 0000 0000 0332 3133 0331 3835
	0x0030:  0331 3234 0234 3007 696e 2d61 6464 7204
	0x0040:  6172 7061 0000 0c00 01
10:46:24.777769 ens18 Out IP p0f-debian.2202 > 54.211.203.35.bc.googleusercontent.com.56214: Flags [R.], seq 0, ack 1805454403, win 0, length 0
	0x0000:  4500 0028 0000 4000 4006 ca55 82d0 f6a8
	0x0010:  23cb d336 089a db96 0000 0000 6b9d 0c43
	0x0020:  5014 0000 e344 0000
10:46:25.279273 ens18 Out IP p0f-debian.38149 > dns.google.domain: 5336+ PTR? 54.211.203.35.in-addr.arpa. (44)
	0x0000:  4500 0048 9f88 4000 4011 1194 82d0 f6a8
	0x0010:  0808 0808 9505 0035 0034 89ce 14d8 0100
	0x0020:  0001 0000 0000 0000 0235 3403 3231 3103
	0x0030:  3230 3302 3335 0769 6e2d 6164 6472 0461
	0x0040:  7270 6100 000c 0001
10:46:31.093113 ens18 Out IP p0f-debian.bootpc > _gateway.bootps: BOOTP/DHCP, Request from bc:24:11:58:31:ca (oui Unknown), length 288
	0x0000:  45c0 013c 5e44 4000 4011 e7c1 82d0 f6a8
	0x0010:  82d0 f6a1 0044 0043 0128 f424 0101 0600
	0x0020:  e1d4 01ad 0001 0000 82d0 f6a8 0000 0000
	0x0030:  0000 0000 0000 0000 bc24 1158 31ca 0000
	0x0040:  0000 0000 0000 0000 0000 0000 0000 0000
	0x0050:  0000 0000 0000 0000 0000 0000 0000 0000
	0x0060:  0000 0000 0000 0000 0000 0000 0000 0000
	0x0070:  0000 0000 0000 0000 0000 0000 0000 0000
	0x0080:  0000 0000 0000 0000 0000 0000 0000 0000
	0x0090:  0000 0000 0000 0000 0000 0000 0000 0000
	0x00a0:  0000 0000 0000 0000 0000 0000 0000 0000
	0x00b0:  0000 0000 0000 0000 0000 0000 0000 0000
	0x00c0:  0000 0000 0000 0000 0000 0000 0000 0000
	0x00d0:  0000 0000 0000 0000 0000 0000 0000 0000
	0x00e0:  0000 0000 0000 0000 0000 0000 0000 0000
	0x00f0:  0000 0000 0000 0000 0000 0000 0000 0000
	0x0100:  0000 0000 0000 0000 6382 5363 3501 033d
	0x0110:  0701 bc24 1158 31ca 3711 0102 060c 0f1a
	0x0120:  1c79 0321 2829 2a77 f9fc 1139 02ff ff0c
	0x0130:  0a70 3066 2d64 6562 6961 6eff
10:46:36.319016 ens18 Out ARP, Request who-has _gateway tell p0f-debian, length 28
	0x0000:  0001 0800 0604 0001 bc24 1158 31ca 82d0
	0x0010:  f6a8 0000 0000 0000 82d0 f6a1
10:46:38.256014 ens18 Out IP p0f-debian.smtp > 159.223.216.152.55424: Flags [R.], seq 0, ack 3583268148, win 0, length 0
	0x0000:  4500 0028 0000 4000 4006 48df 82d0 f6a8
	0x0010:  9fdf d898 0019 d880 0000 0000 d594 5534
	0x0020:  5014 0000 ba7c 0000
10:46:43.280025 ens18 Out ARP, Reply p0f-debian is-at bc:24:11:58:31:ca (oui Unknown), length 28
	0x0000:  0001 0800 0604 0002 bc24 1158 31ca 82d0
	0x0010:  f6a8 d401 c34c 17fc 82d0 f6a1
10:46:51.172580 ens18 Out IP p0f-debian.8585 > scan.cypex.ai.43998: Flags [R.], seq 0, ack 1214460214, win 0, length 0
	0x0000:  4500 0028 0000 4000 4006 29e5 82d0 f6a8
	0x0010:  0394 93de 2189 abde 0000 0000 4863 3136
	0x0020:  5014 0000 57e4 0000
10:46:51.903300 ens18 Out IP p0f-debian.47857 > dns.google.domain: 49138+ PTR? 222.147.148.3.in-addr.arpa. (44)
	0x0000:  4500 0048 2548 4000 4011 8bd4 82d0 f6a8
	0x0010:  0808 0808 baf1 0035 0034 89ce bff2 0100
	0x0020:  0001 0000 0000 0000 0332 3232 0331 3437
	0x0030:  0331 3438 0133 0769 6e2d 6164 6472 0461
	0x0040:  7270 6100 000c 0001
10:46:59.303113 ens18 Out IP p0f-debian.http > 45.58.127.135.62747: Flags [R.], seq 0, ack 3285140438, win 0, length 0
	0x0000:  4500 0028 0000 4000 4006 1496 82d0 f6a8
	0x0010:  2d3a 7f87 0050 f51b 0000 0000 c3cf 43d6
	0x0020:  5014 0000 8c84 0000
10:47:08.275185 ens18 Out IP p0f-debian.http-alt > 185.12.59.118.54786: Flags [R.], seq 0, ack 2940062110, win 0, length 0
	0x0000:  4500 0028 0000 4000 4006 ccd4 82d0 f6a8
	0x0010:  b90c 3b76 1f90 d602 0000 0000 af3d c99e
	0x0020:  5014 0000 d365 0000
10:47:08.287246 ens18 Out IP p0f-debian.54104 > dns.google.domain: 60715+ PTR? 118.59.12.185.in-addr.arpa. (44)
	0x0000:  4500 0048 fc63 4000 4011 b4b8 82d0 f6a8
	0x0010:  0808 0808 d358 0035 0034 89ce ed2b 0100
	0x0020:  0001 0000 0000 0000 0331 3138 0235 3902
	0x0030:  3132 0331 3835 0769 6e2d 6164 6472 0461
	0x0040:  7270 6100 000c 0001
10:47:13.280029 ens18 Out ARP, Reply p0f-debian is-at bc:24:11:58:31:ca (oui Unknown), length 28
	0x0000:  0001 0800 0604 0002 bc24 1158 31ca 82d0
	0x0010:  f6a8 d401 c34c 17fc 82d0 f6a1
10:47:15.720899 ens18 Out IP p0f-debian.81 > hosted-by.pfcloud.io.54348: Flags [R.], seq 0, ack 3481458212, win 0, length 0
	0x0000:  4500 0028 0000 4000 4006 2936 82d0 f6a8
	0x0010:  cc4c cbd4 0051 d44c 0000 0000 cf82 d624
	0x0020:  5014 0000 23f1 0000
10:47:16.479272 ens18 Out IP p0f-debian.54507 > dns.google.domain: 51855+ PTR? 212.203.76.204.in-addr.arpa. (45)
	0x0000:  4500 0049 7c30 4000 4011 34eb 82d0 f6a8
	0x0010:  0808 0808 d4eb 0035 0035 89cf ca8f 0100
	0x0020:  0001 0000 0000 0000 0332 3132 0332 3033
	0x0030:  0237 3603 3230 3407 696e 2d61 6464 7204
	0x0040:  6172 7061 0000 0c00 01
10:47:18.108425 ens18 Out IP p0f-debian.omniorb > scan-67-12.shadowserver.org.40363: Flags [R.], seq 0, ack 576002423, win 0, length 0
	0x0000:  4500 0028 0000 4000 4006 e4a0 82d0 f6a8
	0x0010:  403e 9c78 1f98 9dab 0000 0000 2255 1977
	0x0020:  5014 0000 6091 0000
10:47:18.527346 ens18 Out IP p0f-debian.32869 > dns.google.domain: 60127+ PTR? 120.156.62.64.in-addr.arpa. (44)
	0x0000:  4500 0048 3f4b 4000 4011 71d1 82d0 f6a8
	0x0010:  0808 0808 8065 0035 0034 89ce eadf 0100
	0x0020:  0001 0000 0000 0000 0331 3230 0331 3536
	0x0030:  0236 3202 3634 0769 6e2d 6164 6472 0461
	0x0040:  7270 6100 000c 0001
10:47:20.862990 ens18 Out ARP, Request who-has _gateway tell p0f-debian, length 28
	0x0000:  0001 0800 0604 0001 bc24 1158 31ca 82d0
	0x0010:  f6a8 0000 0000 0000 82d0 f6a1
10:47:23.860284 ens18 Out IP p0f-debian.5900 > ip-114-46.4vendeta.com.36899: Flags [R.], seq 0, ack 72519930, win 0, length 0
	0x0000:  4500 0028 0000 4000 4006 00a9 82d0 f6a8
	0x0010:  4e80 722e 170c 9023 0000 0000 0452 90fa
	0x0020:  5014 0000 392d 0000
10:47:24.671341 ens18 Out IP p0f-debian.56066 > dns.google.domain: 18941+ PTR? 46.114.128.78.in-addr.arpa. (44)
	0x0000:  4500 0048 5dfa 4000 4011 5322 82d0 f6a8
	0x0010:  0808 0808 db02 0035 0034 89ce 49fd 0100
	0x0020:  0001 0000 0000 0000 0234 3603 3131 3403
	0x0030:  3132 3802 3738 0769 6e2d 6164 6472 0461
	0x0040:  7270 6100 000c 0001
10:47:26.333641 ens18 Out IP p0f-debian.kerberos > hosted-by.pfcloud.io.59933: Flags [R.], seq 0, ack 2450174224, win 0, length 0
	0x0000:  4500 0028 0000 4000 4006 292f 82d0 f6a8
	0x0010:  cc4c cbdb 0058 ea1d 0000 0000 920a b110
	0x0020:  5014 0000 709e 0000
10:47:26.719271 ens18 Out IP p0f-debian.60098 > dns.google.domain: 63470+ PTR? 219.203.76.204.in-addr.arpa. (45)
	0x0000:  4500 0049 b668 4000 4011 fab2 82d0 f6a8
	0x0010:  0808 0808 eac2 0035 0035 89cf f7ee 0100
	0x0020:  0001 0000 0000 0000 0332 3139 0332 3033
	0x0030:  0237 3603 3230 3407 696e 2d61 6464 7204
	0x0040:  6172 7061 0000 0c00 01
10:47:43.541238 ens18 Out IP p0f-debian.8881 > ec2-54-196-48-232.compute-1.amazonaws.com.56284: Flags [R.], seq 0, ack 1704540939, win 0, length 0
	0x0000:  4500 0028 0000 4000 4006 59ab 82d0 f6a8
	0x0010:  36c4 30e8 22b1 dbdc 0000 0000 6599 3b0b
	0x0020:  5014 0000 2f79 0000
10:47:44.127275 ens18 Out IP p0f-debian.40661 > dns.google.domain: 51130+ PTR? 232.48.196.54.in-addr.arpa. (44)
	0x0000:  4500 0048 d994 4000 4011 d787 82d0 f6a8
	0x0010:  0808 0808 9ed5 0035 0034 89ce c7ba 0100
	0x0020:  0001 0000 0000 0000 0332 3332 0234 3803
	0x0030:  3139 3602 3534 0769 6e2d 6164 6472 0461
	0x0040:  7270 6100 000c 0001
10:47:44.771587 ens18 Out IP p0f-debian.4566 > 18.211.203.35.bc.googleusercontent.com.53329: Flags [R.], seq 0, ack 2899705663, win 0, length 0
	0x0000:  4500 0028 0000 4000 4006 ca79 82d0 f6a8
	0x0010:  23cb d312 11d6 d051 0000 0000 acd5 ff3f
	0x0020:  5014 0000 b13c 0000
10:47:45.151265 ens18 Out IP p0f-debian.40025 > dns.google.domain: 50433+ PTR? 18.211.203.35.in-addr.arpa. (44)
	0x0000:  4500 0048 207b 4000 4011 90a1 82d0 f6a8
	0x0010:  0808 0808 9c59 0035 0034 89ce c501 0100
	0x0020:  0001 0000 0000 0000 0231 3803 3231 3103
	0x0030:  3230 3302 3335 0769 6e2d 6164 6472 0461
	0x0040:  7270 6100 000c 0001
10:47:48.560041 ens18 Out ARP, Reply p0f-debian is-at bc:24:11:58:31:ca (oui Unknown), length 28
	0x0000:  0001 0800 0604 0002 bc24 1158 31ca 82d0
	0x0010:  f6a8 d401 c34c 17fc 82d0 f6a1
10:47:53.611952 ens18 Out IP p0f-debian.microsoft-ds > bba-2-50-154-61.alshamil.net.ae.50327: Flags [R.], seq 0, ack 4162215119, win 0, length 0
	0x0000:  4500 0028 0000 4000 4006 24e8 82d0 f6a8
	0x0010:  0232 9a3d 01bd c497 0000 0000 f816 5ccf
	0x0020:  5014 0000 7ead 0000
10:47:54.367274 ens18 Out IP p0f-debian.49065 > dns.google.domain: 15847+ PTR? 61.154.50.2.in-addr.arpa. (42)
	0x0000:  4500 0046 c5fa 4000 4011 eb23 82d0 f6a8
	0x0010:  0808 0808 bfa9 0035 0032 89cc 3de7 0100
	0x0020:  0001 0000 0000 0000 0236 3103 3135 3402
	0x0030:  3530 0132 0769 6e2d 6164 6472 0461 7270
	0x0040:  6100 000c 0001
10:47:54.974285 ens18 Out IP p0f-debian.ssh > 196.251.87.175.32793: Flags [R.], seq 0, ack 1786844228, win 0, length 0
	0x0000:  4500 0028 0000 4000 4006 a4ac 82d0 f6a8
	0x0010:  c4fb 57af 0016 8019 0000 0000 6a81 1444
	0x0020:  5014 0000 1ab8 0000
10:48:02.133171 ens18 Out IP p0f-debian.8089 > 207.90.244.22.23320: Flags [R.], seq 0, ack 1747557301, win 0, length 0
	0x0000:  4500 0028 0000 4000 4006 fde5 82d0 f6a8
	0x0010:  cf5a f416 1f99 5b18 0000 0000 6829 9bb5
	0x0020:  5014 0000 f455 0000
10:48:02.559293 ens18 Out IP p0f-debian.53163 > dns.google.domain: 48727+ PTR? 22.244.90.207.in-addr.arpa. (44)
	0x0000:  4500 0048 a831 4000 4011 08eb 82d0 f6a8
	0x0010:  0808 0808 cfab 0035 0034 89ce be57 0100
	0x0020:  0001 0000 0000 0000 0232 3203 3234 3402
	0x0030:  3930 0332 3037 0769 6e2d 6164 6472 0461
	0x0040:  7270 6100 000c 0001
10:48:07.198978 ens18 Out ARP, Request who-has _gateway tell p0f-debian, length 28
	0x0000:  0001 0800 0604 0001 bc24 1158 31ca 82d0
	0x0010:  f6a8 0000 0000 0000 82d0 f6a1
10:48:08.695596 ens18 Out IP p0f-debian.9922 > 196.251.81.30.48414: Flags [R.], seq 0, ack 2143632487, win 0, length 0
	0x0000:  4500 0028 0000 4000 4006 ab3d 82d0 f6a8
	0x0010:  c4fb 511e 26c2 bd1e 0000 0000 7fc5 3c67
	0x0020:  5014 0000 8030 0000
10:48:11.936689 ens18 Out IP p0f-debian.8385 > o36.scanner.modat.io.40520: Flags [R.], seq 0, ack 3423280666, win 0, length 0
	0x0000:  4500 0028 0000 4000 4006 1bf3 82d0 f6a8
	0x0010:  5b86 49de 20c1 9e48 0000 0000 cc0b 1e1a
	0x0020:  5014 0000 e7c3 0000
10:48:12.799276 ens18 Out IP p0f-debian.49101 > dns.google.domain: 20608+ PTR? 222.73.134.91.in-addr.arpa. (44)
	0x0000:  4500 0048 f02e 4000 4011 c0ed 82d0 f6a8
	0x0010:  0808 0808 bfcd 0035 0034 89ce 5080 0100
	0x0020:  0001 0000 0000 0000 0332 3232 0237 3303
	0x0030:  3133 3402 3931 0769 6e2d 6164 6472 0461
	0x0040:  7270 6100 000c 0001
10:48:13.760125 ens18 Out ARP, Reply p0f-debian is-at bc:24:11:58:31:ca (oui Unknown), length 28
	0x0000:  0001 0800 0604 0002 bc24 1158 31ca 82d0
	0x0010:  f6a8 d401 c34c 17fc 82d0 f6a1
10:48:15.900039 ens18 Out IP p0f-debian.ssh > 196.251.87.210.45728: Flags [R.], seq 0, ack 1214370689, win 0, length 0
	0x0000:  4500 0028 0000 4000 4006 a489 82d0 f6a8
	0x0010:  c4fb 57d2 0016 b2a0 0000 0000 4861 d381
	0x0020:  5014 0000 4af0 0000
10:48:16.895309 ens18 Out IP p0f-debian.60651 > dns.google.domain: 48264+ PTR? 210.87.251.196.in-addr.arpa. (45)
	0x0000:  4500 0049 8419 4000 4011 2d02 82d0 f6a8
	0x0010:  0808 0808 eceb 0035 0035 89cf bc88 0100
	0x0020:  0001 0000 0000 0000 0332 3130 0238 3703
	0x0030:  3235 3103 3139 3607 696e 2d61 6464 7204
	0x0040:  6172 7061 0000 0c00 01
10:48:26.525807 ens18 Out IP p0f-debian.8093 > o41.scanner.modat.io.43199: Flags [R.], seq 0, ack 248772904, win 0, length 0
	0x0000:  4500 0028 0000 4000 4006 cf3c 82d0 f6a8
	0x0010:  a213 5007 1f9d a8bf 0000 0000 0ed3 f928
	0x0020:  5014 0000 73e4 0000
10:48:27.135288 ens18 Out IP p0f-debian.40937 > dns.google.domain: 60751+ PTR? 7.80.19.162.in-addr.arpa. (42)
	0x0000:  4500 0046 eb6a 4000 4011 c5b3 82d0 f6a8
	0x0010:  0808 0808 9fe9 0035 0032 89cc ed4f 0100
	0x0020:  0001 0000 0000 0000 0137 0238 3002 3139
	0x0030:  0331 3632 0769 6e2d 6164 6472 0461 7270
	0x0040:  6100 000c 0001
10:48:36.393563 ens18 Out IP p0f-debian.8000 > sh-ams-nl-gd16-wk101b.internet-census.org.10762: Flags [R.], seq 0, ack 1126978212, win 0, length 0
	0x0000:  4500 0028 0000 4000 4006 1339 82d0 f6a8
	0x0010:  2d9c 8082 1f40 2a0a 0000 0000 432c 52a4
	0x0020:  5014 0000 a91e 0000
10:48:37.375268 ens18 Out IP p0f-debian.41161 > dns.google.domain: 63845+ PTR? 130.128.156.45.in-addr.arpa. (45)
	0x0000:  4500 0049 a3d4 4000 4011 0d47 82d0 f6a8
	0x0010:  0808 0808 a0c9 0035 0035 89cf f965 0100
	0x0020:  0001 0000 0000 0000 0331 3330 0331 3238
	0x0030:  0331 3536 0234 3507 696e 2d61 6464 7204
	0x0040:  6172 7061 0000 0c00 01
10:48:41.441123 ens18 Out ARP, Reply p0f-debian is-at bc:24:11:58:31:ca (oui Unknown), length 28
	0x0000:  0001 0800 0604 0002 bc24 1158 31ca 82d0
	0x0010:  f6a8 d401 c34c 17fc 82d0 f6a1
10:48:57.381862 ens18 Out IP p0f-debian.1451 > mechanicus.census.shodan.io.26200: Flags [R.], seq 0, ack 821006399, win 0, length 0
	0x0000:  4500 0028 0000 4000 4006 aaf6 82d0 f6a8
	0x0010:  4017 d649 05ab 6658 0000 0000 30ef 903f
	0x0020:  5014 0000 f2c4 0000
10:49:02.494983 ens18 Out ARP, Request who-has _gateway tell p0f-debian, length 28
	0x0000:  0001 0800 0604 0001 bc24 1158 31ca 82d0
	0x0010:  f6a8 0000 0000 0000 82d0 f6a1
10:49:04.580406 ens18 Out IP p0f-debian.5555 > 193.142.147.209.59844: Flags [R.], seq 0, ack 3826430523, win 0, length 0
	0x0000:  4500 0028 0000 4000 4006 6bf7 82d0 f6a8
	0x0010:  c18e 93d1 15b3 e9c4 0000 0000 e412 b23b
	0x0020:  5014 0000 4b31 0000
10:49:05.023247 ens18 Out IP p0f-debian.56976 > dns.google.domain: 51355+ PTR? 209.147.142.193.in-addr.arpa. (46)
	0x0000:  4500 004a ac89 4000 4011 0491 82d0 f6a8
	0x0010:  0808 0808 de90 0035 0036 89d0 c89b 0100
	0x0020:  0001 0000 0000 0000 0332 3039 0331 3437
	0x0030:  0331 3432 0331 3933 0769 6e2d 6164 6472
	0x0040:  0461 7270 6100 000c 0001
10:49:09.874375 ens18 Out IP p0f-debian.4087 > o30.scanner.modat.io.33754: Flags [R.], seq 0, ack 274474041, win 0, length 0
	0x0000:  4500 0028 0000 4000 4006 3944 82d0 f6a8
	0x0010:  3625 51ee 0ff7 83da 0000 0000 105c 2439
	0x0020:  5014 0000 e5dd 0000
10:49:12.406757 ens18 Out IP p0f-debian.8888 > 185.12.59.118.51915: Flags [R.], seq 0, ack 1065085515, win 0, length 0
	0x0000:  4500 0028 0000 4000 4006 ccd4 82d0 f6a8
	0x0010:  b90c 3b76 22b8 cacb 0000 0000 3f7b ea4b
	0x0020:  5014 0000 2a8a 0000
10:49:12.985010 ens18 Out IP p0f-debian.puppet > 168.150.216.162.bc.googleusercontent.com.49349: Flags [R.], seq 0, ack 126140651, win 0, length 0
	0x0000:  4560 0028 0000 4000 4006 8776 82d0 f6a8
	0x0010:  a2d8 96a8 1fcc c0c5 0000 0000 0784 c0eb
	0x0020:  5014 0000 53d5 0000
10:49:13.215305 ens18 Out IP p0f-debian.39018 > dns.google.domain: 23478+ PTR? 168.150.216.162.in-addr.arpa. (46)
	0x0000:  4500 004a ccea 4000 4011 e42f 82d0 f6a8
	0x0010:  0808 0808 986a 0035 0036 89d0 5bb6 0100
	0x0020:  0001 0000 0000 0000 0331 3638 0331 3530
	0x0030:  0332 3136 0331 3632 0769 6e2d 6164 6472
	0x0040:  0461 7270 6100 000c 0001
10:49:39.561082 ens18 Out IP p0f-debian.telnet > q046070.dynamic.ppp.asahi-net.or.jp.38382: Flags [R.], seq 0, ack 1997949774, win 0, length 0
	0x0000:  4500 0028 0000 4000 4006 c75b 82d0 f6a8
	0x0010:  cbb5 2e46 0017 95ee 0000 0000 7716 4b4e
	0x0020:  5014 0000 e3f1 0000
10:49:39.839255 ens18 Out IP p0f-debian.41643 > dns.google.domain: 27396+ PTR? 70.46.181.203.in-addr.arpa. (44)
	0x0000:  4500 0048 a2e8 4000 4011 0e34 82d0 f6a8
	0x0010:  0808 0808 a2ab 0035 0034 89ce 6b04 0100
	0x0020:  0001 0000 0000 0000 0237 3002 3436 0331
	0x0030:  3831 0332 3033 0769 6e2d 6164 6472 0461
	0x0040:  7270 6100 000c 0001
10:49:42.894918 ens18 Out IP p0f-debian.1228 > o49.scanner.modat.io.35541: Flags [R.], seq 0, ack 213313735, win 0, length 0
	0x0000:  4500 0028 0000 4000 4006 57aa 82d0 f6a8
	0x0010:  3344 3669 04cc 8ad5 0000 0000 0cb6 e8c7
	0x0020:  5014 0000 478b 0000
10:49:44.640116 ens18 Out ARP, Reply p0f-debian is-at bc:24:11:58:31:ca (oui Unknown), length 28
	0x0000:  0001 0800 0604 0002 bc24 1158 31ca 82d0
	0x0010:  f6a8 d401 c34c 17fc 82d0 f6a1
10:49:53.656386 ens18 Out IP p0f-debian.ms-wbt-server > ip-49-90.4vendeta.com.35170: Flags [R.], seq 0, ack 798064134, win 0, length 0
	0x0000:  4500 0028 0000 4000 4006 4081 82d0 f6a8
	0x0010:  4f7c 315a 0d3d 8962 0000 0000 2f91 7e06
	0x0020:  5014 0000 714a 0000
10:49:54.175259 ens18 Out IP p0f-debian.48967 > dns.google.domain: 15882+ PTR? 90.49.124.79.in-addr.arpa. (43)
	0x0000:  4500 0047 16eb 4000 4011 9a32 82d0 f6a8
	0x0010:  0808 0808 bf47 0035 0033 89cd 3e0a 0100
	0x0020:  0001 0000 0000 0000 0239 3002 3439 0331
	0x0030:  3234 0237 3907 696e 2d61 6464 7204 6172
	0x0040:  7061 0000 0c00 01
10:49:58.814998 ens18 Out ARP, Request who-has _gateway tell p0f-debian, length 28
	0x0000:  0001 0800 0604 0001 bc24 1158 31ca 82d0
	0x0010:  f6a8 0000 0000 0000 82d0 f6a1
10:50:13.326922 ens18 Out IP p0f-debian.2220 > butter.scanf.shodan.io.26200: Flags [R.], seq 0, ack 1500444120, win 0, length 0
	0x0000:  4500 0028 0000 4000 4006 35c4 82d0 f6a8
	0x0010:  40e1 4ab2 08ac 6658 0000 0000 596e f5d8
	0x0020:  5014 0000 ec78 0000
10:50:36.042837 ens18 Out IP p0f-debian.5201 > chocolate.scanf.shodan.io.22648: Flags [R.], seq 0, ack 1788063280, win 0, length 0
	0x0000:  4510 0028 0000 4000 4006 6e95 82d0 f6a8
	0x0010:  a5e3 acce 1451 5878 0000 0000 6a93 ae30
	0x0020:  5014 0000 5e18 0000
10:50:36.131415 ens18 Out IP p0f-debian.8728 > 103.102.230.4.52307: Flags [R.], seq 0, ack 519428468, win 0, length 0
	0x0000:  4500 0028 0000 4000 4006 73ec 82d0 f6a8
	0x0010:  6766 e604 2218 cc53 0000 0000 1ef5 d974
	0x0020:  5014 0000 0217 0000
10:50:37.371815 ens18 Out IP p0f-debian.5922 > o44.scanner.modat.io.53924: Flags [R.], seq 0, ack 796576712, win 0, length 0
	0x0000:  4500 0028 0000 4000 4006 cf1c 82d0 f6a8
	0x0010:  a213 5027 1722 d2a4 0000 0000 2f7a cbc8
	0x0020:  5014 0000 5f13 0000
10:50:41.120110 ens18 Out ARP, Reply p0f-debian is-at bc:24:11:58:31:ca (oui Unknown), length 28
	0x0000:  0001 0800 0604 0002 bc24 1158 31ca 82d0
	0x0010:  f6a8 d401 c34c 17fc 82d0 f6a1
10:50:45.112355 ens18 Out IP p0f-debian.5209 > 194.180.49.216.56806: Flags [R.], seq 0, ack 1564876333, win 0, length 0
	0x0000:  4540 0028 0000 4000 4006 cc8a 82d0 f6a8
	0x0010:  c2b4 31d8 1459 dde6 0000 0000 5d46 1e2d
	0x0020:  5014 0000 d417 0000
10:50:50.270981 ens18 Out ARP, Request who-has _gateway tell p0f-debian, length 28
	0x0000:  0001 0800 0604 0001 bc24 1158 31ca 82d0
	0x0010:  f6a8 0000 0000 0000 82d0 f6a1
10:50:54.419074 ens18 Out IP p0f-debian.ms-wbt-server > machinenode.241.116.joy.services.44709: Flags [R.], seq 0, ack 2319948633, win 0, length 0
	0x0000:  4500 0028 0000 4000 4006 32ce 82d0 f6a8
	0x0010:  9d14 f174 0d3d aea5 0000 0000 8a47 9b59
	0x0020:  5014 0000 c64a 0000
10:50:54.591268 ens18 Out IP p0f-debian.45925 > dns.google.domain: 56158+ PTR? 116.241.20.157.in-addr.arpa. (45)
	0x0000:  4500 0049 02c1 4000 4011 ae5a 82d0 f6a8
	0x0010:  0808 0808 b365 0035 0035 89cf db5e 0100
	0x0020:  0001 0000 0000 0000 0331 3136 0332 3431
	0x0030:  0232 3003 3135 3707 696e 2d61 6464 7204
	0x0040:  6172 7061 0000 0c00 01
10:50:59.204978 ens18 Out IP p0f-debian.9000 > zl-amsc-nl-gp6-wk118a.internet-census.org.14310: Flags [R.], seq 0, ack 4121546727, win 0, length 0
	0x0000:  4500 0028 0000 4000 4006 423b 82d0 f6a8
	0x0010:  b9e2 c539 2328 37e6 0000 0000 f5a9 cfe7
	0x0020:  5014 0000 969b 0000
10:50:59.711314 ens18 Out IP p0f-debian.38084 > dns.google.domain: 45957+ PTR? 57.197.226.185.in-addr.arpa. (45)
	0x0000:  4500 0049 3617 4000 4011 7b04 82d0 f6a8
	0x0010:  0808 0808 94c4 0035 0035 89cf b385 0100
	0x0020:  0001 0000 0000 0000 0235 3703 3139 3703
	0x0030:  3232 3603 3138 3507 696e 2d61 6464 7204
	0x0040:  6172 7061 0000 0c00 01
10:51:12.319410 ens18 Out IP p0f-debian.ssh > 207.90.244.14.20041: Flags [R.], seq 0, ack 553945521, win 0, length 0
	0x0000:  4500 0028 0000 4000 4006 fded 82d0 f6a8
	0x0010:  cf5a f40e 0016 4e49 0000 0000 2104 89b1
	0x0020:  5014 0000 79d9 0000
10:51:13.023317 ens18 Out IP p0f-debian.46472 > dns.google.domain: 18309+ PTR? 14.244.90.207.in-addr.arpa. (44)
	0x0000:  4500 0048 c310 4000 4011 ee0b 82d0 f6a8
	0x0010:  0808 0808 b588 0035 0034 89ce 4785 0100
	0x0020:  0001 0000 0000 0000 0231 3403 3234 3402
	0x0030:  3930 0332 3037 0769 6e2d 6164 6472 0461
	0x0040:  7270 6100 000c 0001
10:51:38.552136 ens18 Out IP p0f-debian.8295 > 194.180.49.217.57144: Flags [R.], seq 0, ack 3381158092, win 0, length 0
	0x0000:  4540 0028 0000 4000 4006 cc89 82d0 f6a8
	0x0010:  c2b4 31d9 2067 df38 0000 0000 c988 60cc
	0x0020:  5014 0000 17d5 0000
10:51:43.600173 ens18 Out ARP, Reply p0f-debian is-at bc:24:11:58:31:ca (oui Unknown), length 28
	0x0000:  0001 0800 0604 0002 bc24 1158 31ca 82d0
	0x0010:  f6a8 d401 c34c 17fc 82d0 f6a1
10:51:43.774984 ens18 Out ARP, Request who-has _gateway tell p0f-debian, length 28
	0x0000:  0001 0800 0604 0001 bc24 1158 31ca 82d0
	0x0010:  f6a8 0000 0000 0000 82d0 f6a1
10:51:49.174313 ens18 Out IP p0f-debian.5596 > 207.90.244.2.26200: Flags [R.], seq 0, ack 1545755961, win 0, length 0
	0x0000:  4500 0028 0000 4000 4006 fdf9 82d0 f6a8
	0x0010:  cf5a f402 15dc 6658 0000 0000 5c22 5d39
	0x0020:  5014 0000 3d6a 0000
10:51:58.989750 ens18 Out IP p0f-debian.telnet > 121.179.188.151.11772: Flags [R.], seq 0, ack 2194732713, win 0, length 0
	0x0000:  4500 0028 0000 4000 4006 8b0c 82d0 f6a8
	0x0010:  79b3 bc97 0017 2dfc 0000 0000 82d0 f6a9
	0x0020:  5014 0000 587f 0000
10:51:59.103307 ens18 Out IP p0f-debian.57452 > dns.google.domain: 26738+ PTR? 151.188.179.121.in-addr.arpa. (46)
	0x0000:  4500 004a 587f 4000 4011 589b 82d0 f6a8
	0x0010:  0808 0808 e06c 0035 0036 89d0 6872 0100
	0x0020:  0001 0000 0000 0000 0331 3531 0331 3838
	0x0030:  0331 3739 0331 3231 0769 6e2d 6164 6472
	0x0040:  0461 7270 6100 000c 0001
10:52:18.423655 ens18 Out IP p0f-debian.7788 > 196.251.81.75.56967: Flags [R.], seq 0, ack 163405670, win 0, length 0
	0x0000:  4500 0028 0000 4000 4006 ab10 82d0 f6a8
	0x0010:  c4fb 514b 1e6c de87 0000 0000 09bd 5f66
	0x0020:  5014 0000 b9f9 0000
10:52:23.225591 ens18 Out IP p0f-debian.8040 > azpdegi0adhv.stretchoid.com.44217: Flags [R.], seq 0, ack 2655485463, win 0, length 0
	0x0000:  4500 0028 0000 4000 4006 13e7 82d0 f6a8
	0x0010:  147f 98f1 1f68 acb9 0000 0000 9e47 7e17
	0x0020:  5014 0000 a066 0000
10:52:23.679260 ens18 Out IP p0f-debian.37924 > dns.google.domain: 16389+ PTR? 241.152.127.20.in-addr.arpa. (45)
	0x0000:  4500 0049 f65c 4000 4011 babe 82d0 f6a8
	0x0010:  0808 0808 9424 0035 0035 89cf 4005 0100
	0x0020:  0001 0000 0000 0000 0332 3431 0331 3532
	0x0030:  0331 3237 0232 3007 696e 2d61 6464 7204
	0x0040:  6172 7061 0000 0c00 01
10:52:24.352459 ens18 Out IP p0f-debian.1460 > n33.scanner.modat.io.49024: Flags [R.], seq 0, ack 2041002423, win 0, length 0
	0x0000:  4500 0028 0000 4000 4006 8242 82d0 f6a8
	0x0010:  1f0e 2007 05b4 bf80 0000 0000 79a7 39b7
	0x0020:  5014 0000 7eaf 0000
10:52:24.703275 ens18 Out IP p0f-debian.57506 > dns.google.domain: 55525+ PTR? 7.32.14.31.in-addr.arpa. (41)
	0x0000:  4500 0045 37bb 4000 4011 7964 82d0 f6a8
	0x0010:  0808 0808 e0a2 0035 0031 89cb d8e5 0100
	0x0020:  0001 0000 0000 0000 0137 0233 3202 3134
	0x0030:  0233 3107 696e 2d61 6464 7204 6172 7061
	0x0040:  0000 0c00 01
10:52:28.240197 ens18 Out ARP, Reply p0f-debian is-at bc:24:11:58:31:ca (oui Unknown), length 28
	0x0000:  0001 0800 0604 0002 bc24 1158 31ca 82d0
	0x0010:  f6a8 d401 c34c 17fc 82d0 f6a1
10:52:28.525905 ens18 Out IP p0f-debian.9090 > scan.cypex.ai.54871: Flags [R.], seq 0, ack 71964352, win 0, length 0
	0x0000:  4500 0028 0000 4000 4006 ece2 82d0 f6a8
	0x0010:  0388 d0ec 2382 d657 0000 0000 044a 16c0
	0x0020:  5014 0000 4cff 0000
10:52:28.799311 ens18 Out IP p0f-debian.39089 > dns.google.domain: 5144+ PTR? 236.208.136.3.in-addr.arpa. (44)
	0x0000:  4500 0048 d601 4000 4011 db1a 82d0 f6a8
	0x0010:  0808 0808 98b1 0035 0034 89ce 1418 0100
	0x0020:  0001 0000 0000 0000 0332 3336 0332 3038
	0x0030:  0331 3336 0133 0769 6e2d 6164 6472 0461
	0x0040:  7270 6100 000c 0001
10:52:33.694989 ens18 Out ARP, Request who-has _gateway tell p0f-debian, length 28
